:020000040800F2
:10000000480C0020C1010008F92D000891270008C4
:10001000012D0008BB080008DD36000800000000C4
:10002000000000000000000000000000012F000898
:10003000CD0E000800000000752E00088530000875
:10004000DB010008DB010008DB010008DB01000820
:10005000DB010008DB010008DB010008DB01000810
:10006000DB010008DB010008DB010008DB01000800
:10007000DB010008410B0008DB0100084D0B000804
:10008000590B0008650B0008DB010008C9080008CF
:10009000BD080008DB010008DB010008DB010008E7
:1000A000DB010008DB010008DB010008DB010008C0
:1000B000DB010008DB010008DB010008DB010008B0
:1000C000DB010008DB010008DB010008DB010008A0
:1000D000DB010008DB010008D1360008DB01000865
:1000E000DB010008DB010008DB010008DB01000880
:1000F000DB010008DB010008DB010008DB01000870
:10010000DB010008DB010008DB010008DB0100085F
:1001100069320008DB010008913100089D310008B8
:10012000DB010008DB010008DB010008DB0100083F
:10013000DB010008DB010008DB010008DB0100082F
:10014000DB010008DB010008DB010008DB0100081F
:10015000DB010008DB010008DB010008DB0100080F
:10016000DB010008DB010008DB010008DB010008FF
:10017000DB010008DB010008DB01000800000000D3
:10018000DB010008DB010008DB010008DB010008DF
:10019000DB010008DB010008DB010008DB010008CF
:1001A000DB010008DB010008DB010008DFF80CD0F0
:1001B00000F026FB004800476D400008480C002076
:1001C0000648804706480047FEE7FEE7FEE7FEE7F1
:1001D000FEE7FEE7FEE7FEE7FEE7FEE73D3100084B
:1001E000AD0100082DE9F05F0546002092469B46D0
:1001F00088460646814640241BE02846414647463D
:10020000224600F046FA53465A46C01A914110D38E
:1002100011461846224600F02DFA2D1A67EB010808
:100220004F4622460120002100F024FA17EB000976
:100230004E41201EA4F10104DFDC484631462A4627
:100240004346BDE8F09F40EA01039B0703D009E065
:1002500008C9121F08C0042AFAD203E011F8013BB2
:1002600000F8013B521EF9D270472DE9FE4F80463F
:1002700081EA0300C00F0C46009021F0004123F0FA
:100280000045B8EB0200A94105D240462146904600
:100290001C460B46024623F00040104347D0270D72
:1002A000C7F30A00C3F30A510290401A0190402894
:1002B0006BDAC3F3130040F4801B0098924620B120
:1002C0000023D2EB030A63EB0B0B01985946C0F1F4
:1002D0004002504600F0CEF906460D4650465946BB
:1002E000019A00F0E6F910EB08006141002487EA6A
:1002F000115284EAE7731A4340D0009A62B3019A1C
:10030000012A4FEA075215DC001B61EB02014FF096
:10031000004202EA0752CDE90042001C41F580117B
:1003200032462B4600F01DFA03B0BDE8F08F404680
:100330002146F9E7001B61EB0201001C41F5801327
:1003400000185B412018A2F5001747EB030140EAB3
:10035000D570B6196D4111E06D084FEA360645EAD1
:10036000C0754FEA0752001B61EB0201001C41F50A
:10037000801149084FEA30000019514132462B469E
:1003800003B0BDE8F04F00F0DDB900980122400055
:100390000023D0EB020263EBE073009821464FEAA2
:1003A000E074B8EB000061EB0401E9E783F000437F
:1003B0005BE781F0004158E72DE9FE4F81EA030435
:1003C00004F0004421F0004100944FF0000B23F0B2
:1003D000004350EA01045ED052EA03045BD0C3F349
:1003E0000A54C1F30A552C44A4F2F3340194A0FB3F
:1003F0000254C1F3130141F48011C3F3130343F416
:10040000801301FB024400FB034E840A970A44EA6E
:10041000815447EA8357A4FB076802958D0A05FBC0
:1004200007854FEA932C04FB0C542705029D4FEAE5
:10043000065847EA1637B5EB08056EEB070C870E32
:10044000920E47EA811742EA8312A7FB0201B6EB3C
:100450000B0164EB00042B0D43EA0C335E1844EBF4
:100460001C50DA465146E7FB0201C5F313044FEA7C
:100470000B3343EA14534FEA0432019C43EA060368
:10048000A4F10C040294009CCDE900B400F069F9D9
:1004900003B0BDE8F08F00200146F9E72DE9F04DEB
:1004A00081EA030404F0004B21F0004514464FF0AC
:1004B000000A23F0004150EA050220D054EA01026C
:1004C0001DD0C5F30A570246C5F31303C1F3130049
:1004D000C1F30A5640F4801543F48013A7EB0608D5
:1004E000101BD64608F2FD3873EB050002D308F165
:1004F000010801E092185B41B8F1000F03DA002017
:100500000146BDE8F08D00204FF480110646844678
:100510000EE0171B73EB050705D3121B63EB0503F6
:1005200006434CEA010C49084FEA300092185B413F
:1005300050EA0107EDD152EA030012D082EA04002A
:1005400083EA0501084305D0101BAB4106D2012206
:10055000002306E000224FF0004302E06FF00102AA
:1005600053101AEB06004CEB085110EB0A0041EB5C
:100570000B01BDE8F04D00F0E5B80EB5C10F80EA03
:10058000E0700844CA07002140F233438DE80E00B2
:100590000A460B4600F0E5F803B000BD0EB540F288
:1005A000334102910021CDE900110A460B4600F0CB
:1005B000D8F803B000BD00F0004230F000400AD08F
:1005C000C10D01F56071C0F3160042EA0151C20885
:1005D00040071143704700200146704730B5041EA4
:1005E00071F1000404DB4FF00044404264EB010170
:1005F000141E73F1000405DB1C464FF00043524209
:1006000063EB04038B4208BF824230BD30B5041E49
:1006100071F1000404DB4FF00044404264EB01013F
:10062000141E73F1000405DB1C464FF000435242D8
:1006300063EB0403994208BF904230BD01F00043D0
:1006400030B421F0004150EA010206D00A0DA2F5B3
:100650006072C1F31301002A02DC30BC0020704735
:10066000440F44EAC104C100E01830BC00EBC250A2
:1006700000F031B8202A04DB203A00FA02F1002011
:1006800070479140C2F1200320FA03F319439040D0
:100690007047202A04DB203A21FA02F0002170473B
:1006A00021FA02F3D040C2F12002914008431946DA
:1006B0007047202A06DBCB17203A41FA02F043EAC2
:1006C000E07306E041FA02F3D040C2F1200291400B
:1006D0000843194670470029A8BF7047401C4900CD
:1006E00008BF20F00100704710B4B0FA80FC00FA97
:1006F0000CF050EA010404BF10BC704749B1CCF1C2
:10070000200421FA04F411FA0CF118BF012121434D
:100710000843A3EB0C01CB1D4FEA00614FEA102008
:1007200042BF002010BC704700EBC35010440029AA
:10073000A4BF10BC7047401C490008BF20F0010056
:1007400010BC704710B5141E73F1000408DA401C89
:1007500041F1000192185B411A4301D120F00100E0
:1007600010BD2DE9F04D92469B4611B1B1FA81F2D0
:1007700002E0B0FA80F220329046FFF77BFF044699
:100780000F4640EA0A0041EA0B0153465A46084325
:1007900013D0114653EA010019D0C8F14002504667
:1007A000FFF777FF05460E46504659464246FFF78B
:1007B00061FF084305D0012004E020463946BDE82A
:1007C000F08D0020054346EAE0762C4337430A9833
:1007D0006305E40AA0EB08000022FD0A44EA47543E
:1007E0000A3002D500200146E9E7010510196941E8
:1007F000DDE9084500196941BDE8F04DA2E70000B8
:10080000064C074D06E0E06840F0010394E807005D
:1008100098471034AC42F6D3FFF7CCFC984200085E
:10082000B842000870B5C1F30A5201F00045002437
:10083000C1F3130140F2FF3341F480119A4201DA0F
:10084000002070BD40F233439A42A2F2334203DCEF
:100850005242FFF71EFF00E090402C43F1D040428F
:1008600070BD70B58C1810F8015B15F0070301D14D
:1008700010F8013B2A1106D110F8012B03E010F803
:10088000016B01F8016B5B1EF9D12B0705D4002326
:10089000521E0DD401F8013BFAE710F8013BCB1AC8
:1008A000921C03E013F8015B01F8015B521EF9D5BD
:1008B000A142D8D3002070BDFEE7FEE7014800F05A
:1008C000ADBC0000F4010020014800F0A7BC00000E
:1008D000F401002030B50B4C0021D0F80020231D7E
:1008E00054F82150954201D1002030BD53F82150D9
:1008F00001F10101954201D1C8B230BD0429EFD305
:1009000030BD000018410008044A03E0487252F864
:100910002030CB600028F9D1704700006001002032
:1009200010B5044C606802F079FAA068BDE8104088
:1009300002F024BA6C01002038B5044600208DF87E
:100940000000207C18B921460120FFF7DDFF207A46
:1009500010B101280AD114E0A08C216A82B220686B
:1009600001F0D4FE58B100208DF800009DF8000081
:10097000002803D0206B401C2063012038BD0120DB
:10098000F2E7A08C226A83B2A16C606800F04CF898
:10099000EAE700002DE9F041144C277866780FB99A
:1009A000002EFCD000250B614FB1012300F054FB59
:1009B00018B156210EA002F09BFE257011E02EB159
:1009C000022300F049FB58B15F2106E0A3785BB138
:1009D000042300F041FB18B1682105A002F088FE55
:1009E00065700120BDE8F0810020FBE78C0100204C
:1009F0002E2E5C4845524F4C69625C4465765F49D7
:100A00006E746572666163655C436F6D756E696374
:100A10006174696F6E5C436F6D5F43616E447269B0
:100A20007665722E630000002DE9F0471D461746DB
:100A300088468146082B04D8FFF7ACFF0120BDE8AB
:100A4000F087680700D0012000EBD506002407E0FE
:100A50003A19082341464846FFF79CFF0834761EA2
:100A6000012EF5D8680705D005F007033A1941466D
:100A70004846E1E73A190823F9E7000010B553ECBE
:100A8000112B2DED088BB0EE408AF0EE608A51EC10
:100A9000180B9FED24ABFFF789FC41EC100B2348AA
:100AA0009FED239B0078C0B101F04AFFB0EE40BA41
:100AB000F0EE60BAB0EE480AF0EE680A01F0BCFE53
:100AC000B0EE401AF0EE601A53EC1B2B51EC110BF8
:100AD000FFF7CBFB41EC100B01E001F031FFB0EE72
:100AE000408AF0EE608A02F01CFE53EC192B51ECA8
:100AF000100BFFF78BFD10D253EC1A2B51EC180B97
:100B0000FFF784FD06D2B0EE490AF0EE690ABDECAB
:100B1000088B10BD9FED080BF9E7B0EE480AF0EE28
:100B2000680AF4E700000000000000002000002038
:100B30009A9999999999C9409A9999999999C9C0F5
:100B4000014800F0B9BC000074030020014800F027
:100B5000B3BC000014030020014800F0ADBC00004D
:100B600034040020014800F0A7BC0000D40300209A
:100B700001681823CAB2103AB2FBF3F2054B6FF3C7
:100B80000901032A9B5CC36500D9091D81650846DC
:100B900070470000F840000810B5014600208B693E
:100BA0008A6A4FF0C07453B1B3F5005F15D072B1CB
:100BB000012A0CD0022A0AD0032A09D104E01AB172
:100BC000012A06D0022A03D1C96AC90100D5012031
:100BD00010BDC96AA142FAD010BD002AF7D0012A7F
:100BE000F2D0022AF3D0032AF3D010BD30B5046846
:100BF000256825F480252560046863608368402BA0
:100C0000036803D099600068C26030BD9A600068D4
:100C1000C16030BD10B5002302E0CC5CC4545B1C45
:100C20009342FAD310BD000010B504462DED068B9B
:100C3000B0EE408AF0EE608A90ED0A0B90ED061B54
:100C400053EC102B51EC110BFFF7B6FB94ED080B96
:100C500094ED021B41EC190B53EC102B51EC110BD2
:100C6000FFF7AAFB94ED000B41EC1A0B53EC102B91
:100C700051EC180BFFF7A0FB53EC1A2BFFF7F5FA1A
:100C800053EC192BFFF792FB94ED040B41EC190B7D
:100C900053EC102B9FED090B51EC100BFFF7FEFBF3
:100CA00053EC192BFFF788FB41EC100B84ED088BFC
:100CB00084ED0A0BBDEC068B10BD000000000000A7
:100CC0000000F03F2DE9F041114C1546074654F85D
:100CD00025000E46426D38469047010054F8250025
:100CE00080F8501054F825000FD0017F142202EB39
:100CF000810132464158806D08443946FFF78AFF2A
:100D000054F82500816D31448165BDE8F081000013
:100D10006C0100202DE9F84F314A00233826D16BB1
:100D2000DFF8C0B004461D469A4638293BD192F8F8
:100D3000441029B1166482F844A00020BDE8F88F61
:100D400038274FF0040C4FF000094946A7EB0C0878
:100D500001E0884502D910F801C0654410F801C0CF
:100D6000BCF1AA0F03D0BCF1BB0F02D007E00B46C9
:100D700005E0A1F1010C634501D14FF00109491CC7
:100D8000B942E6D3B9F1000F05D08BB1012013644D
:100D900082F8440020E090F837008DF800009DF8BC
:100DA0000000AA2801D0166416E03720106413E072
:100DB0001664606BA8420FD109485C3001F00CFD4D
:100DC000204600F0FFF818B1A1788BF8001001E080
:100DD0008BF800A00120B1E78BF800A0ADE7000080
:100DE000D0060020A00100202DE9F843354A002359
:100DF0001425D16B1C46142937D192F8441011B137
:100E00000020156426E0142604274FF000098046D0
:100E10004946A6EB070C01E08C4502D918F8017091
:100E20003C4418F80170AA2F02D0BB2F02D006E074
:100E30000B4604E04F1EBB4201D14FF00109491C93
:100E4000B142E9D38DF800909DF8001029B18BB123
:100E50000120136482F8440031E098F813008DF803
:100E600000009DF80000AA2801D0156427E0132097
:100E7000106424E015640169A14220D182782AB16E
:100E80001049012A09D0022A16D10EE00E49426803
:100E9000D8F80800C1E900200EE0D0E90123D8F815
:100EA0000C00CA65C1E9183006E0D0E90123D8F882
:100EB0000C008A66C1E91B300120BDE8F8830020E0
:100EC000FBE700009805002090010020704700001B
:100ED00070B5314C00252DED028B207DF0B1E07D09
:100EE000401CC0B2E075218B01EBC10202EB011185
:100EF00000EB810085B2A07D284951F820102846DA
:100F0000884751EC100BFFF799FB2060E07D6328C8
:100F100004D90020E075208B401C2083A068FFF7D7
:100F20004AFB41EC100B1E48FFF77EFE51EC100B04
:100F3000FFF784FBE060617D79B1FFF73CFB41EC9A
:100F4000180B2068FFF737FB41EC100BB0EE481A86
:100F5000F0EE681AFFF792FD04E02068FFF72BFB24
:100F600041EC100B51EC100BFFF768FB206194ED86
:100F7000030A0023BDEEC00A10EE100A94ED000A29
:100F800002B2BDEEC00A10EE100A01B2284600F00F
:100F900009F8BDEC028B70BDD401002028010020AF
:100FA0009800002030B4054C20806180E380A2804E
:100FB00030BC0221024801F01CBC0000A601002048
:100FC0002C07002010B581780124082913D2DFE80E
:100FD00001F01313041313131313084980680860F6
:100FE0000878012801D018B106E002F019F803E0F2
:100FF00002F038F800E00024204610BDA2010020D5
:1010000010B50A781249082A1CD2DFE802F01B1B2F
:1010100004080B11171D4A680260896811E0182244
:101020000C4902E00B4918221831FFF70CF909E0CE
:10103000084C30341ECC80E81E0003E0CA68026011
:1010400009694160012010BD02491C224031ECE7D2
:10105000A2010020E0070020F0B590F82040012C0C
:1010600007D090F82040022C03D0416A41F480213F
:1010700053E00468A5686D0105D4A5682D0102D46C
:10108000A568ED0046D5A4680125C4F30164A54018
:101090001D608D684FF4C0739DB1CE6835434E68B6
:1010A00045EAC605066803EB0417F5514FF4C2750F
:1010B000076805EB04150E697E51097D012905D0ED
:1010C00009E00E88CD6845EA4655EBE701684E59C0
:1010D00046F480764E511179D2F805504FF4C67619
:1010E00041EA0521056806EB0416A9511178D2F8EA
:1010F00001204FF4C47541EA0221026805EB041592
:101100005151006803EB0411425842F00102425071
:101110000020F0BD416A41F4001141620120F0BDA0
:10112000704730B590F82040012C07D090F820404F
:10113000022C03D0416A41F4802109E011B1012958
:1011400009D00CE00468E46807E0416A41F400114A
:101150004162012030BD04682469A407F5D04FF432
:10116000D874056804EB01142D5915F00405956039
:1011700005682D5942D0ED08556005682C59C4F317
:101180004004D4604FF4DA74056804EB01142D595F
:1011900005F00F05156105682D59C5F30725956103
:1011A00005682C59240C54614FF4DC72046802EB7E
:1011B0000112A4581C700468A458240A5C700468C6
:1011C000A458240C9C700468A258120EDA704FF4D4
:1011D000DE72046802EB0112A4581C710468A45862
:1011E000240A5C710468A458240C9C710468A258F9
:1011F000120EDA7129B1012909D00DE06D0D1560CB
:10120000BBE70068C16841F02001C16004E00068EC
:10121000016941F020010161002030BD2DE9F05F3E
:101220000546006800244669D0F804908768D0F825
:101230000CB0D0F810A0D0F81880F10748D0F9070A
:1012400014D001218160B80703D5284600F00AF9BF
:101250000CE0780702D54FF4006407E0380702D5A8
:101260004FF4805402E0284600F0FBF8F80516D54C
:1012700029684FF480708860B80503D5284600F0CF
:10128000F9F80CE0780502D544F4005407E038057D
:1012900002D544F4804402E0284600F0E9F8F8035F
:1012A00016D529684FF480308860B80303D52846E6
:1012B00000F0E8F80CE0780302D544F4004407E0BD
:1012C000380302D544F4803402E0284600F0D8F810
:1012D000300707D55FEACB6004D52968102044F4B5
:1012E0000074C86070074FF0080707D55FEA0B70FD
:1012F00004D52868C760284600F08EF8B00706D5E8
:101300002868C068800702D0284600F087F8700679
:1013100007D55FEACA6004D52968102044F48064C8
:101320000861B00607D55FEA0A7004D5286807612E
:10133000284600F093F8F00606D528680069800773
:1013400002D0284600F08BF8B00308D55FEAC960E8
:1013500005D5296810204860284600F081F8F00380
:1013600007D55FEA097004D528684760284600F071
:101370008FF8300446D55FEA497040D5F00504D5B2
:101380005FEAC87001D044F00104B00504D55FEAFB
:10139000887001D544F00204700504D55FEA4870F6
:1013A00001D544F00404300529D518F0700F26D07B
:1013B00008F07000402815D006DC102809D020283D
:1013C0000AD0302816D10AE050280ED0602811D15A
:1013D0000EE044F008040DE044F010040AE044F08C
:1013E000200407E044F0400404E044F0800401E0FD
:1013F00044F480742868816921F070018161296852
:1014000004204860002C05D0686A204368622846A2
:10141000FFF786FEBDE8F09F7047000070B500241E
:101420000C4B0D4A2146FFF77CFE0B48FFF752FAA2
:1014300005460848143001680220FFF765FA06489F
:10144000224601690348243050F82530BDE8704039
:1014500024381847580100207C0500207047704749
:101460007047704701490120087070478C010020C7
:101470007047000001490120487070478C0100202E
:101480007047000001490120887070478C010020DE
:10149000704790F83510022903D080214165012062
:1014A0007047052180F835100068016821F00101BE
:1014B00001600020704700002DE9F84304464FF01A
:1014C0000009CDF8009063484FF41651A56D0068EF
:1014D000B0FBF1F72E6894F85C10082000FA01F1D7
:1014E00031420FD021680A6852070BD50A6822F0F2
:1014F00004020A6094F85C108840A860606D40F0B7
:101500000100606594F85C104FF0010808FA01F0E2
:10151000304208D021684969090604D5A860606D89
:1015200040F00200606594F85C100420884030426E
:1015300008D021680968890704D5A860606D40F06B
:101540000400606594F85C1010208840304218D088
:1015500021680968090714D5A86020680168490353
:1015600004D50068000308D5A16C07E00168C9052F
:1015700003D4016821F008010160216C09B1204603
:10158000884794F85C1020208840304231D0216890
:101590000968C9062DD5A86094F83500052820688B
:1015A000016806D0490347D5006800031DD4616C6B
:1015B0001CE021F0160101602068416921F08001E2
:1015C0004161206C08B9A06C20B12068016821F04D
:1015D0000801016094F85C103F208840A86084F8FE
:1015E000349084F83580216D1FE0E16B09B120460D
:1015F0008847606D00282BD0606DC00714D005208F
:1016000084F835002068016821F00101016000982C
:10161000401C0090B84203D820680068C007F6D18B
:1016200084F8349084F83580E16C002910D001B042
:101630002046BDE8F04308470168C905D5D40168D4
:1016400021F01001016084F8349084F83580CCE7F3
:10165000BDE8F883100000202DE9F041044600F0B9
:1016600087F906465CB1002584F83450022084F8DE
:1016700035002068016821F0010101600DE00120C2
:10168000BDE8F08100F074F9801B052805D9202001
:101690006065032084F83500F2E720680068C00721
:1016A000F0D12268116820480140D4E901031843B1
:1016B000D4E903363343184363691843A3691843D5
:1016C000E3691843236A18430843616A042903D174
:1016D000D4E90B1319430843106020684069666A17
:1016E00020F0070130460E43012704280CD1A06AE0
:1016F0000643E06A40B12046FFF74EFA20B1402091
:10170000606584F83570BAE7206846612046FFF7C7
:101710002FFA94F85C203F2191408160656584F840
:1017200035700020ACE700003F8010F02DE9F0415B
:101730000446866D90F83400002501280DD0012064
:1017400084F8340094F835700020012F07D084F815
:10175000340002252846BDE8F0810220FBE702277D
:1017600084F8357060652046FFF740FA94F85C1005
:101770003F208840B0602068016841F01601016098
:101780002068416941F080014161206C20B12068EE
:10179000016841F0080101602068016841F0010121
:1017A0000160D7E72DE9F84FDFF890B100224FF044
:1017B00001084FF0030A4FF00F090BF1040E00BFB0
:1017C0000B6808FA02F42340A3426ED14D68022D43
:1017D00001D0122D0ED1D50800EB850CDCF820507D
:1017E0005607F70E09FA07F6B5430E69BE402E43B9
:1017F000CCF82060066855000F790AFA05FC07F05E
:10180000030726EA0C06AF40374307604E68012EF7
:1018100005D0022E03D0112E01D0122E0ED18768D2
:10182000CE6827EA0C07AE403E4386604668A64372
:101830000C79C4F30014944034434460C4688E6847
:1018400024EA0C04AE402643C6604C68E4006FD521
:101850003B4C256845F480452560246822F003054B
:1018600004F480440094374C2E19D6F808489507A4
:101870002F0F09FA07F5AC43334DA84201D10025DB
:101880002EE0324DA84201D1012529E0304DA84279
:1018900001D1022524E02F4DA84201D103251FE0EC
:1018A0002D4DA84202D104251AE041E02B4DA8425B
:1018B00001D1052514E02A4DA84201D106250FE0EB
:1018C000284DA84201D107250AE0274DA84201D1A1
:1018D000082505E0254DA84201D1092500E00A258B
:1018E000BD402543C6F80858DBF800405D464E6809
:1018F0009C43F60300D51C432C60DEF8004075467F
:101900004E689C43B60300D51C432C600B4D083534
:101910002C684E689C43F60200D51C432C60074D92
:101920000C352C684E689C43B60200D51C432C60D5
:10193000521C102AFFF444AFBDE8F88F003C014070
:1019400044380240003001400000024000040240E0
:1019500000080240000C0240001002400014024047
:1019600000180240001C02400020024000240240F7
:101970000148806870470000040000200248816828
:101980000278114481607047040000200B4810B5B4
:10199000016841F400710160016841F480610160F7
:1019A000016841F480710160032000F097F8002085
:1019B00000F006F800F024F8002010BD003C0240C2
:1019C00070B50D4D04464FF47A712878B1FBF0F0F4
:1019D0000A490968B1FBF0F000F055FB48B9102C3A
:1019E00007D200222146501E00F058F800206C60FB
:1019F00070BD012070BD0000040000201000002018
:101A00001F4808B5016841F480410160006800F496
:101A1000804000901A48001F016841F08051016029
:101A2000006800F080500090052000F057F8002278
:101A300011466FF00B0000F031F8002211466FF0F4
:101A40000A0000F02BF8002211466FF0090000F0A8
:101A500025F800221146501F00F020F80022114600
:101A6000101F00F01BF800221146901E00F016F81F
:101A70000022BDE808401146501E00F00FB80000DB
:101A80004438024000F01F020121914040098000CB
:101A900000F1E020C0F8001170470000F0B40E4BD8
:101AA0001B680C46C3F30223C3F10705042D00D9BC
:101AB0000425191D072901D2002300E0DB1E0126A1
:101AC00006FA05F1491E214099409E40761E1640B7
:101AD0003143F0BC01F091B90CED00E0064900F093
:101AE000070208684FF6FF03184040EA0220034A45
:101AF00010430860704700000CED00E00000FA059C
:101B00002DE9F8431748016841F0805101600068F1
:101B1000154F00F08050012600903E64FFF728FF2B
:101B200005464FF47A78114C05E000BFFFF720FF1F
:101B3000401B40450DD86068C003F7D57E64FFF7B1
:101B400017FF0546464607E0FFF712FF401BB0426D
:101B500002D90320BDE8F88360688003F4D5002033
:101B6000F8E700004038024000000E4200700040DC
:101B70002DE9F0470E46050065D0DFF81481D8F84E
:101B80000000F7B200F00F00B04207D288F80070F2
:101B9000D8F8000000F00F00B04254D128683D4C46
:101BA000810712D5400703D5206840F4E05020603B
:101BB0002878000703D5206840F460402060206842
:101BC000A96820F0F000084320602878C0072DD0D5
:101BD000304968680839012812D0022813D0032838
:101BE00011D00968890700292DDA216821F0030145
:101BF00001432160FFF7BCFE814641F2883A0EE0C6
:101C000009688903EFE709688901ECE7FFF7B0FE8F
:101C1000A0EB0901514502D90320BDE8F0872068F7
:101C2000696800F00C00B0EB810FEFD1D8F800101C
:101C3000404601F00F01B14207D90770006800F07B
:101C40000F00B04201D00120E7E72878400705D512
:101C50002068E96820F4E0500843206028780007F5
:101C600006D52068296920F4604040EAC100206060
:101C700000F03CF82168084AC1F30311515CC840E8
:101C8000064908600020FFF79BFE0020C5E7000022
:101C9000003C0240083802400041000810000020CB
:101CA0000148006870470000100000200448054902
:101CB00000680968044AC1F38221515CC84070473A
:101CC000100000200838024010410008044805496F
:101CD00000680968044AC1F34231515CC84070474A
:101CE000100000200838024010410008154810B5C7
:101CF000006810F00C02144813D01449042A0FD0C5
:101D0000082A0ED10F4C241F2268236802F03F02DC
:101D10005B0207D52068C0F38810A0FB010106E034
:101D2000084610BD2168C1F38811A1FB0001002302
:101D3000FEF758FA2168C1F30141491C4900B0FB84
:101D4000F1F010BD083802400024F40040787D0115
:101D50002DE9F84F050076D02878DFF8F8B2BE4CB0
:101D6000C00749D0DBF800105846C1F381010129B2
:101D700008D00068C0F3810002280AD1201D006845
:101D8000400206D52068800336D568680028E2D076
:101D900032E06868B0F5803F10D0B0F5A02F206821
:101DA00010D020F480302060206820F48020206053
:101DB0006868A0B1FFF7DCFD06460CE0206840F43F
:101DC0008030F4E740F480202060F7E7FFF7D0FD93
:101DD000801B642873D820688003F7D50CE0FFF7D8
:101DE000C7FD064605E000BFFFF7C2FD801B642863
:101DF000F0D820688003F7D42878DFF86082800765
:101E00004FF000093ED5DBF80010584611F00C0FDA
:101E100009D00068C0F3810002280BD18D48001F53
:101E20000068400206D42068800715D5E8680128BC
:101E300009D111E0E868B8B10120C8F80000FFF747
:101E400097FD064605E002E1FFF792FD801B0228A0
:101E5000C0D820688007F7D52068296920F0F800ED
:101E600040EAC10020600DE0C8F80090FFF780FD57
:101E7000064604E0FFF77CFD801B02281FD820687F
:101E80008007F7D42878000722D5724E7448696914
:101E90006C3671B101210160FFF76AFD074604E06D
:101EA000FFF766FDC01B022809D830688007F7D508
:101EB0000EE0C0F80090FFF75BFD074605E083E009
:101EC000FFF756FDC01B02287ED830688007F7D484
:101ED0002878400768D5DFF87CA100270AF1380A86
:101EE000DAF80000C0000BD4DAF8001041F080519D
:101EF000CAF80010DAF80000012700F080500090C6
:101F0000584E3068C00510D4306840F4807030609E
:101F1000FFF72EFD009005E0FFF72AFD0099401A1B
:101F2000022851D83068C005F6D54A4EA8686836F0
:101F300001280FD00528306810D020F00100306053
:101F4000306820F004003060A868B8B1FFF710FDD9
:101F500000900FE0306840F00100F4E740F004002A
:101F60003060F7E7FFF704FD0099411A41F288302D
:101F7000814264D830688007F4D50EE0FFF7F8FCA2
:101F8000009007E0FFF7F4FC0099411A41F2883015
:101F9000814254D830688007F4D42FB1DAF80010A9
:101FA00021F08051CAF80010A869C0B3DBF8001016
:101FB000C1F3810102294AD00228484607D0C8F857
:101FC0006000FFF7D5FC00E039E005463AE04746FF
:101FD000C8F86000FFF7CCFC064604E0FFF7C8FC39
:101FE000801B02282BD820688001F7D4D5E907018F
:101FF0000843A96A1C4A490802EB01416A6A41EA9E
:102000008211084395F82C1040EA01611148001F25
:10201000016001203866FFF7ABFC054605E014E0DF
:10202000FFF7A6FC401B022809D820688001F7D5DD
:102030000BE000BFFFF79CFC401B022802D90320E5
:10204000BDE8F88F20688001F4D40020F8E7012073
:10205000F6E700000838024000380240000047421E
:10206000800E4742007000400000FFFF4FF0E0216B
:102070000428086903D020F004000861704740F08C
:102080000400FAE7704710B5401EB0F1807F01D31D
:10209000012010BD4FF0E02460610F21601700F0B7
:1020A000ACFE0020A06107202061002010BD10B50B
:1020B000FFF7E8FF10BD7047704730B590F8382043
:1020C000012A20D0012280F83820022380F83930FC
:1020D00003685C6824F070045C6003685C680D68E9
:1020E0002C435C6003689C6824F080049C60036857
:1020F0009C6849680C439C6080F83920002180F876
:102100003810084630BD022030BD10B5040003D0A1
:1021100094F8390010B107E0012010BD002084F8C8
:102120003800204600F00CF8022084F83900211D08
:10213000206801F039F8012084F83900002010BD32
:1021400008B50C4A01680C48914207D1016841F07A
:1021500010010160006800F0100009E0074A914298
:1021600007D1016841F020010160006800F0200003
:10217000009008BD001000404038024000140040AC
:102180000168CA6842F00102CA600068016841F053
:102190000101016000207047704770B50446006877
:1021A00001694FF00005C943890715D4C168C943C7
:1021B000890711D4E91E0161012020762068806919
:1021C0008007204602D0FFF7E7FF04E000F098F810
:1021D000204600F096F8257620680169C943490732
:1021E00017D4C168C943490713D46FF004010161D2
:1021F000022020762068806910F4407F204602D0BB
:10220000FFF7CAFF04E000F07BF8204600F079F801
:10221000257620680169C943090716D4C168C943F6
:10222000090712D46FF008010161042020762068AC
:10223000C0698007204602D0FFF7AEFF04E000F03F
:102240005FF8204600F05DF8257620680169C943F3
:10225000C90617D4C168C943C90613D46FF0100169
:102260000161082020762068C06910F4407F204674
:1022700002D0FFF791FF04E000F042F8204600F0A2
:1022800040F8257620680169C943C90708D1C168AB
:10229000C943C90704D1891E0161204600F032F804
:1022A00020680169C943090609D4C168C943090600
:1022B00005D46FF0800101612046FFF7FCFE206825
:1022C0000169C943490609D4C168C943490605D40F
:1022D0006FF040010161204600F028F82068016994
:1022E000C94389060BD4C168C943890607D46FF076
:1022F000200101612046BDE87040FFF7DDBE70BDE2
:1023000070477047074988420AD107480178491C3D
:10231000C9B20170012903D900210170FEF7D8BDAF
:10232000704700001C02002000000020704770472A
:1023300070B5026804461068D168536910F00F0F39
:1023400050D003F0010501F4907635435DD0C2070B
:1023500005D0CA0503D5E26B42F00102E2634207F1
:1023600005D5DA0703D0E26B42F00202E26382078E
:1023700005D5DA0703D0E26B42F00402E2630207FC
:1023800005D5DA0703D0E26B42F00802E263E26BA4
:10239000002A33D0800604D5880602D5204600F0F6
:1023A000C9FF20684069E16BC0F38010090700D4C1
:1023B00028B3204600F0A7FF2068416949061AD5D6
:1023C000416921F040014161606BA0B11B49016589
:1023D000606BFFF75EF8002810D0606B016DBDE800
:1023E00070400847830610D58B060ED52046BDE801
:1023F000704000F09FBF2046FFF799FF70BD204658
:10240000FFF795FF0020E06370BD030606D50B06BD
:1024100004D52046BDE8704001F028B94006F3D548
:102420004806F1D5D168204621F04001D160202135
:1024300084F8391000F0AAF970BD00007532000868
:1024400070B5040004D094F83900002510B106E0FE
:10245000012070BD84F83850204600F023F8242075
:1024600084F839002068C16821F40051C160204619
:1024700000F0A6FF2068016921F490410161206805
:10248000416921F02A0141612068C16841F400518D
:10249000C160E563202084F8390084F83A00002008
:1024A00070BD00002DE9F0470446D0F800C0554843
:1024B000DFF84C81032102220123534E00254705FA
:1024C00086B04FF040094FF4806AC4454BD1D0F834
:1024D00000C04CF4002CC0F800C0006800F40020DC
:1024E00005908DE80E000820CDE9031069463046BE
:1024F000FFF758F9464E4548D046C6E9035A75617C
:10250000B561F5613562756286E881023046FFF794
:10251000A3F818B184213FA001F0EAF82663B46360
:102520003B4E3A48603630383060C6E90175C6E93E
:1025300003587561B561F561356230467562FFF724
:102540008BF818B1962133A001F0D2F8666300220F
:1025500011463420B463FFF7A1FA3420FFF792FA52
:1025600006B0BDE8F087DFF8BC80C445F8D1D0F8EC
:1025700000C04CF4003CC0F800C0006800F400301B
:1025800005900C208DE80D000720CDE90310694669
:102590003046FFF707F91E4E1C48C036B846C6E95C
:1025A000035A75613030B56186E801034FF400309D
:1025B000C6E90750574630467562FFF74DF818B127
:1025C000C32114A001F094F82663B4630F48164E9B
:1025D00018303060C6E90185C6E9035775614FF4CC
:1025E0004030B561C6E9075030467562FFF734F8F0
:1025F00018B1D52107A001F07BF86663B463AFE79B
:10260000004C004040380240000002407060024030
:10261000140300202E2E2F5372632F757361727472
:102620002E630000004400403404002090F83A304B
:10263000202B1DD1D1B1CAB190F83830012B17D061
:1026400081628285C2850021C163222280F83A20FE
:1026500080F8381001684A6942F001024A61006856
:10266000C16841F49071C16000207047012070473B
:10267000022070472DE9F047824601682148002575
:10268000814200D10225204C4FF0140854F8251047
:102690000F7F0E6C08EB870051F8009015B1087C95
:1026A00018B105E00220216800E00120FEF72CF9B6
:1026B00054F82510A7B1002208EB8200B2B20958E5
:1026C0005046FFF7B3FF54F82500816A4846884713
:1026D000002854F8250005D0416B491C416304E0F3
:1026E0000122E9E7816B491C816354F82500C66328
:1026F00054F82500017F19B100210177BDE8F0876A
:102700000121FAE7004400406C01002070B5044646
:1027100090F83900202830D169B362B394F83800BA
:1027200001282AD0012084F838002162A284E284A2
:102730000025E563212084F83900236B1048D86315
:10274000236B10481864236B0F48D864206B134622
:1027500005652668206B321DFEF7E8FF21686FF0E3
:102760004000086084F838502068416941F08001D9
:102770004161002070BD012070BD022070BD0000CD
:10278000CF320008FD3200088532000870477047DC
:10279000FEE700000021017201224272054BC0E9F0
:1027A0000331054BC0E905134170044909684160D4
:1027B0000270704794040020B9080008140000203B
:1027C000044A03E0487052F820304B600028F9D1E9
:1027D000704700001400002010B50446007818B9B6
:1027E00021460120FFF7ECFF0120607200202072DB
:1027F00010BD70B5044600780D4618B92146012079
:10280000FFF7DEFF607A40B1002060722061E0686F
:10281000C16A2846BDE8704008472069401C206115
:102820006169002907D0884205D901202072A0697A
:10283000BDE87040004770BD2DE9F0413C4E2DEDE4
:10284000048BB0EE409AF0EE609A96ED000B51ECDE
:10285000190B53EC102BFDF7AFFD41EC180B354D68
:10286000012400BF05EBC40010ED020B06EBC40011
:1028700053EC102B90ED001B51EC110BFDF79CFD60
:1028800053EC182BFDF7F1FC641C41EC180BE4B27F
:10289000032CE7D9264F274E0124203716F11806BE
:1028A00006EBC40010ED020B07EBC40053EC102B39
:1028B00090ED001B51EC110BFDF77EFD53EC182B36
:1028C000FDF777FD641C41EC180BE4B2032CE7D94B
:1028D00097ED000B53EC102B9FED170B51EC100BE9
:1028E000FDF7DCFD53EC182BFDF766FD41EC100BFA
:1028F0005FF0030005EBC001401E11ED021B10F05C
:10290000FF0081ED001BF5D185ED009B5FF003001A
:1029100006EBC001401E11ED021B10F0FF0081ED1F
:10292000001BF5D186ED000BBDEC048BBDE8F081FA
:1029300058000020F0040020000000000000F03FDC
:1029400010B5334C2DED068BB0EE409AF0EE609A48
:102950009FED2D8B00F0E5FE94ED0A1B51EC100B62
:1029600053EC112BFDF73AFE0BD294ED080B51EC12
:10297000190B53EC102BFDF778FC9FED268BC4E967
:10298000080194ED0C0B51EC190B53EC102BFDF7D7
:102990000DFD94ED061B53EC112BFDF70DFD9FED86
:1029A0001F1B53EC112BFDF707FD9FED1E1B53EC76
:1029B000112BFDF773FD94ED040B41EC1A0B53EC56
:1029C000102B51EC180BFDF7F7FC94ED081B53ECA2
:1029D000112BFDF7F1FC94ED020B41EC180B53ECBD
:1029E000102B51EC190BFDF7E7FC53EC182BFDF7FE
:1029F0003CFC53EC1A2BFDF738FC84ED0C9B41ECAE
:102A0000100BBDEC068B10BD0000000000000000A4
:102A100020000020000000000000F03F0000000047
:102A200000408F4000000000000024400D4808B521
:102A3000016841F4001101600068002200F40010F8
:102A4000009011461020FFF729F81020FFF71AF820
:102A5000002211461120FFF721F8BDE8084011209F
:102A6000FFF710B83038024070B5494886B00024EE
:102A7000016841F010010160016801F01001059149
:102A8000016841F480710160016801F48071059171
:102A9000016841F004010160016801F00401059141
:102AA000016841F020010160016801F020010591F9
:102AB000016841F080010160016801F08001059129
:102AC000016841F001010160016801F00101059117
:102AD000016841F002010160016801F00201059105
:102AE000016841F040010160016801F04001059179
:102AF000016841F00801016000684FF6FF7600F0C0
:102B00000800009605900325CDE901546946214847
:102B1000FEF748FE3011CDE90005694602941E48D3
:102B2000FEF740FE0096CDE9015469461B48FEF7CA
:102B300039FE0096CDE9015469461948FEF732FE88
:102B4000F01ECDE90005694602941648FEF72AFEFC
:102B500048F2F070CDE90005694602941248FEF78C
:102B600021FE0096CDE9015469461048FEF71AFE91
:102B70000096CDE9015469460D48FEF713FE009614
:102B8000CDE9015469460B48FEF70CFE06B070BD56
:102B9000303802400010024000200240000802408D
:102BA00000140240001C02400000024000040240E9
:102BB00000180240000C02401CB510480E490024C9
:102BC00001605921C0E9011441F28731C160FFF76A
:102BD0009CFA18B142210AA000F08AFD00946946CF
:102BE00006480194FFF769FA002803D0492104A0A0
:102BF00000F07EFD1CBD0000001000401C02002003
:102C00002E2E2F5372632F74696D2E630000000007
:102C10001CB510480E49002401605921C0E9011477
:102C200040F2E731C160FFF770FA18B158210AA0ED
:102C300000F05EFD0094694606480194FFF73DFAF6
:102C4000002803D05F2104A000F052FD1CBD00004D
:102C500000140040580200202E2E2F5372632F7450
:102C6000696D2E63000000000D4810B50B4901602E
:102C70004FF4E1314160002181600C22C160C0E964
:102C800004128161C161FFF7DBFB002805D0BDE8BC
:102C90001040472103A000F02BBD10BD004C0040A8
:102CA000940200202E2E2F5372632F75736172745D
:102CB0002E6300000D4810B50B4901604FF4E1315F
:102CC0004160002181600C22C160C0E90412816171
:102CD000C161FFF7B5FB002805D0BDE810405A21BF
:102CE00003A000F005BD10BD00440040D402002048
:102CF0002E2E2F5372632F75736172742E63000032
:102D0000FEE700000748084A018849BA1160418877
:102D1000A0F10E0249BA11808088911F40BA088044
:102D200070470000CA0100203C0800200748084AFC
:102D3000018849BA51604188A0F10E0249BA518018
:102D40008088911F40BA488070470000CA01002067
:102D50003C0800200748084A018849BA9160418828
:102D6000A0F10E0249BA91808088911F40BA8880F4
:102D700070470000CA0100203C08002010B504463E
:102D80001848FFF707FD17490020CC604861164935
:102D9000216020721549A1621549E162114944314F
:102DA00001F13802C4E905123822E263226484F892
:102DB000440020776063A1F128022262A0632822E8
:102DC000626220630122227460720A480068E06037
:102DD000A1F1A000808FBDE8104082B20248FFF749
:102DE00025BC00002C070020D4020020150D00088F
:102DF000052F00086001002070470907090E002810
:102E000006DA00F00F0000F1E02080F8141D704792
:102E100000F1E02080F80014704700000F490160C5
:102E2000002101720E4A82620E4AC2620E4A42615B
:102E3000143282611422C263026480F84410017764
:102E400041638163094A02620822426201630122EE
:102E50000274417206490968C1607047D4020020BB
:102E6000E90D00086D2F00080C06002098010020D5
:102E700060010020704700002DE9F0471F4C154607
:102E80000F4654F8251014230A7F03EB820291F8B1
:102E9000503051F8029043B18B6DD1F83C8003EB78
:102EA000070C0026C44506D98E652A463946BDE87A
:102EB000F047FDF707BF4B4401463A461846FDF779
:102EC000A9FE54F82500816D3944816554F8250028
:102ED000C26B91420CD3866554F82500816A48463E
:102EE0008847002854F8250004D0416B491C4163F1
:102EF000BDE8F087816B491C8163F9E76C01002014
:102F0000704700002DE9F041154E0546AA20346AAD
:102F10002070BB2060701348A5700078E07015FB2E
:102F200000F047F62E414843A11C6060881DFEF763
:102F300067F80021726A07460846121F02E0235C08
:102F4000401C19449042FAD305486162FDF7F4FC35
:102F5000002802D0044805703846BDE8F081000022
:102F6000D0060020A0010020A10100200B4A30B4AF
:102F7000116AAA230B70BB234B7088700020C870A5
:102F8000536A02461B1F02E00C5C401C224498421C
:102F9000FAD34A6030BC0148FDF7CEBC980500204A
:102FA00010B500EB80002DED028B4000FDF7F6FA26
:102FB0009FED180B194C53EC102B41EC180B94EDB2
:102FC000020B51EC100BFDF7F7F953EC182BFDF742
:102FD000F3F994ED041B53EC112BFDF746F941EC8A
:102FE000100B00F0A9FBB0EE408AF0EE608AB4F955
:102FF0000000FDF7C2FA53EC182BFDF7DDF994ED54
:10300000061B53EC112BFDF730F9BDEC028B41ECA4
:10301000100B10BDB2CD8BB665BC793F38010020D6
:1030200003480021C175018301210175704700002B
:10303000D40100200A4910B500EB80004A889FEDBA
:10304000060B4000904205D3B1F90000FDF795FA58
:1030500041EC100B10BD000000000000000000005B
:103060003801002005480021017590ED010A80ED2E
:10307000000A9FED030A80ED040A7047D401002086
:103080000000000010B5FEF779FCBDE81040FFF726
:103090000EB8000030B5274893B00025016841F014
:1030A00080510160006800F0805011902248016852
:1030B00041F4404101600068022400F44040119056
:1030C0000120039010200490009406940820CDE97C
:1030D0000750B420CDE9090404200B906846FEF7A0
:1030E00037FE00B1FEE7FEF70BFD00B1FEE70CA9CD
:1030F0000F2081E831004FF4A0500F904FF4805022
:10310000109005210CA8FEF733FD00B1FEE7FEF795
:10311000C7FD4FF47A71B0FBF1F0FEF7B4FF042065
:10312000FEF7A4FF00221146501EFEF7B7FC13B0B5
:1031300030BD000040380240007000401048016877
:1031400041F4700101600F48016841F00101016024
:103150000C4A00210832116002680B4B1A400260D1
:10316000031D0A4A1A60026822F4802202600548A0
:103170000C30016002495806803908607047000031
:1031800088ED00E000380240FFFFF6FE103000241A
:103190000148FFF702B800001C0200200148FEF7BA
:1031A000FCBF000058020020F0B50268234B244DFC
:1031B000244E254F254C4FF0804C984209D0604555
:1031C00007D0A84205D0B04203D0B84201D0A042F7
:1031D00004D122F0700E4A6842EA0E0298421BD0D7
:1031E000604519D0A84217D0B04215D0B84213D0CC
:1031F000A04211D0164DA8420ED0164DA8420BD0B9
:10320000154DA84208D0154DA84205D0144DA8422E
:1032100002D0144DA84203D122F44075CA682A4353
:1032200002608A68C2620A688262984201D0A04243
:1032300001D10969016301214161F0BD0000014034
:103240000004004000080040000C00400004014061
:103250000040014000440140004801400018004087
:10326000001C0040002000400148FFF761B800004A
:103270009402002010B5806B0021C185C184FFF746
:1032800056F810BD70B5846B2068406994F8391009
:10329000C0F3C0100025212904D118B1E5842046CF
:1032A00000F03FF82068406994F83A10C0F38010AD
:1032B000222904D118B1E585204600F024F8E06BFE
:1032C00040F01000E0632046FFF731F870BD10B504
:1032D0000146806B09680968C9050CD40021C184C6
:1032E00001684A6922F080024A610068C16841F0C1
:1032F0004001C16010BDFFF749FA10BD10B5806BE9
:10330000FFF745FA10BD0168CA6822F49072CA60DE
:1033100001684A6922F001024A61202180F83A10CE
:1033200070470168CA6822F0C002CA60202180F894
:103330003910704710B590F83A10222901D00220B8
:1033400010BD8168B1F5805F11D001690029016865
:103350001FD0496801F07F03816A4A1C82620B70AA
:10336000C18D491E0904090CC18518D026E00269E7
:10337000816A002A0268526805D0D2B20A80816A46
:10338000491C8162ECE7C2F308020A80816A891C49
:10339000F7E74A68816A4B1C83620A70E0E70168BC
:1033A000CA6822F49072CA6001684A6922F0010278
:1033B0004A61202180F83A10FFF75CF9002010BD27
:1033C0002DE9F04104460068016921F44052E168AA
:1033D000114301612168C86849F20C629043236976
:1033E000A268E5691A4363692B431A430243CA6022
:1033F0002168486920F44072A06910434861E1697E
:103400006425B1F5004F9748974A21684FF032087C
:103410003FD0914201D081427CD1FEF757FC00EBB6
:10342000C00101EB001061688900B0FBF1F6FEF706
:103430004DFC00EBC00101EB001061688900B0FB9E
:10344000F1F0B0FBF5F06FF01801484306EB800196
:1034500008EB0110B0FBF5F000F0F006FEF736FCCB
:1034600000EBC00101EB001061688900B0FBF1F0D6
:10347000B0FBF5F006EB0016FEF728FC00EBC001F0
:1034800001EB001061688900B0FBF1F7FEF71EFC4C
:10349000D2E0914201D081423DD1FEF717FC00EB12
:1034A000C00101EB001061684900B0FBF1F0B0FB16
:1034B000F5F00601FEF70AFC00EBC00101EB00107D
:1034C00061684900B0FBF1F7FEF700FC00EBC001BA
:1034D00001EB001061684900B0FBF1F0B0FBF5F0C2
:1034E0006FF01801484307EB800108EBC100B0FB07
:1034F000F5F000F0F80006EB4006FEF7E7FB00EB06
:10350000C00101EB001061684900B0FBF1F7FEF764
:10351000DDFB3CE055E0FEF7C9FB00EBC00101EB31
:10352000001061684900B0FBF1F0B0FBF5F0060156
:10353000FEF7BCFB00EBC00101EB00106168490025
:10354000B0FBF1F7FEF7B2FB00EBC00101EB00109E
:1035500061684900B0FBF1F0B0FBF5F06FF01801C5
:10356000484307EB800108EBC100B0FBF5F000F029
:10357000F80006EB4006FEF799FB00EBC00101EBFB
:10358000001061684900B0FBF1F7FEF78FFB00EB1C
:10359000C00101EB001061684900B0FBF1F0B0FB25
:1035A000F5F06FF01801484307EB800108EBC1000C
:1035B000B0FBF5F000F00700216830448860BDE8FA
:1035C000F081FEF773FB00EBC00101EB00106168B6
:1035D0008900B0FBF1F6FEF769FB00EBC00101EBDF
:1035E000001061688900B0FBF1F0B0FBF5F06FF0FE
:1035F0001801484306EB800108EB0110B0FBF5F021
:1036000000F0F006FEF752FB00EBC00101EB0010EA
:1036100061688900B0FBF1F0B0FBF5F006EB001635
:10362000FEF744FB00EBC00101EB0010616889006C
:10363000B0FBF1F7FEF73AFB00EBC00101EB001025
:1036400061688900B0FBF1F0B0FBF5F06FF0180194
:10365000484307EB800108EB0110B0FBF5F000F0E8
:103660000F00A9E7001401400010014090F8391044
:10367000212901D0022070478168B1F5805F016A7D
:103680000BD04A1C0262026809785160C18C491E45
:103690000904090CC1840ED017E009880268C1F33F
:1036A0000801516001690029016A02D0491C0162C8
:1036B000ECE7891CFBE70168CA6822F08002CA6057
:1036C0000068C16841F04001C160002070470000FF
:1036D0000148FEF72DBE0000D4020020FEE70000E6
:1036E0009FED010B7047000000000000000000008B
:1036F000FEE703B401984100009850EAC12018BFCA
:1037000004204A0D18BF40F0010040F2FF72B2EBF6
:10371000515F08BF40F00200012808BF052002B039
:1037200070472DED020B019820F0004001909DEDB7
:10373000000B02B07047000010B52F499FED2C1B05
:103740002DED020B84B0059820F000408842DCBFCC
:1037500000209DED040B32DD2849884209D10498F0
:1037600040B94FF0010000F06FFC00F03DFC06B0E6
:1037700010BD05DB9DED040B00F02AFC06B010BD6A
:1037800068469DED040B00F03BF810F0030011D0EB
:10379000012818D09DED021B9DED000B02281AD0C8
:1037A00000F04AFA51EC100B81F0004106B041ECF8
:1037B000100B10BD9DED021B9DED000B012000F0D4
:1037C0006FFB06B010BD9DED021B9DED000B00F0E0
:1037D00033FA06B010BD012000F062FB51EC100B73
:1037E00081F0004106B041EC100B10BD000000005C
:1037F0000000000000000000FB21E93F0000F07F16
:103800002DE9F14F04462DED020B2DED088B8AB00A
:103810009FEDE70B80ED020B139EE74826F0004575
:1038200085420ADC9DED120B002084ED000B0AB0EE
:10383000BDEC088B03B0BDE8F08FE0489FEDE0AB36
:103840009FEDE1BBA84247DDE14F9FEDE39B9FED7C
:10385000E48B9DED120B53EC1A2B51EC100B002E48
:103860001CDDFCF7A3FD41EC100BBD4208D053EC6E
:103870001B2B51EC100BFCF799FDC4E900010BE088
:1038800053EC192B51EC100BFCF790FD53EC182B5B
:10389000FCF78CFDC4E900010120C8E7FCF7E5FC5A
:1038A00041EC100BBD4208D053EC1B2B51EC100B1C
:1038B000FCF7DBFCC4E900010BE053EC192B51ECE5
:1038C000100BFCF7D2FC53EC182BFCF7CEFCC4E930
:1038D00000014FF0FF30AAE7C348A84279DB9DED15
:1038E000120B51EC100B00F0B5FB41EC180B9FEDE7
:1038F000C00B53EC102BFCF75FFD9FEDBF1B53EC8F
:10390000112BFCF7B2FCFCF78DFF0746FCF735FEE8
:1039100041EC190B53EC1A2BFCF74EFD53EC182B12
:10392000FCF747FD41EC180B53EC1B2B51EC190B2A
:10393000FCF742FDDFF8C8A241EC100B4FEA155826
:103940000125FA4453EC102B51EC180BFCF72EFD1B
:10395000032DC4E900013DD0C1F30A5005EB451128
:10396000A8EB00001139814234DA0AEB051BB0EEF6
:1039700048AA9BED000BF0EE68AA53EC102B51EC1B
:10398000190BFCF719FD41EC1B0B51EC1A0B53EC16
:103990001B2BFCF70BFD41EC180B51EC1A0B53ECF5
:1039A000182BFCF703FD53EC1B2BFCF7FFFC9BEDE6
:1039B000020B41EC1A0B53EC102B51EC190BFCF7DA
:1039C000FBFC53EC1A2BFCF7F1FC41EC100B6D1CCB
:1039D000B8E70EE0002EA8BF3846BFF628AF94ED3A
:1039E000000B51EC100B81F00041C4E9000178425A
:1039F0001DE7C6F3130040F4801EC6F30A50A0F280
:103A0000F530471100F01F05C5F12000DDF848B082
:103A100008900020069007900520EC467949002D7B
:103A200007EB0002794408BF51F8221009D051F881
:103A3000223001EB8201AB404A68089922FA01F179
:103A40001943A1FB0E26A1FB0B131A449A4234BF63
:103A50000123002303EB06080CEB8003D3E901A646
:103A60000E448E4234BF0121002192448A4411B198
:103A7000924502D903E0924501D2012100E00021E4
:103A8000C3E901A641444CF82010011EA0F1010039
:103A9000C4DC029800F10050850F0298DDE903674D
:103AA0008000DDF81480FCF768FD41EC1A0B30460D
:103AB000FCF774FD9FED541B53EC112BFCF77CFCC1
:103AC00041EC1B0B3846FCF769FD9FED511B53EC95
:103AD000112BFCF771FC41EC180B4046FCF75EFD26
:103AE0009FED4D1B53EC112BFCF766FC41EC190BC1
:103AF00051EC180B53EC192BFCF7B7FB53EC1B2BB9
:103B0000FCF7B3FB53EC1A2BFCF7AFFBCDE9080134
:103B1000002008909DED080B53EC1A2B51EC100B74
:103B2000FCF744FC53EC1B2BFCF740FC53EC182B2C
:103B3000FCF73CFC53EC192BFCF73BFC9FED381BCE
:103B400053EC112BFCF738FC9FED370B41EC180BB5
:103B500053EC102B9DED080B51EC100BFCF72CFCDB
:103B600053EC182BFCF781FB9FED310B41EC180B4C
:103B700053EC102B9DED080B51EC100BFCF71CFCCB
:103B800053EC182BFCF771FB41EC100B139810F061
:103B9000004F06D06D4251EC100B81F0004141EC1A
:103BA000100B284684ED000B41E6000000000000E9
:103BB0000000000000000000FB21E93F7CD902402A
:103BC00000004054FB21F93F3163621A61B4D03DDB
:103BD000FB21F93F000000000000601A61B4D03DF5
:103BE0007370032E8A19A33BFB21394100000000AA
:103BF00083C8C96D305FE43F000000000000E03F73
:103C00001208000060070000000000000000103EE5
:103C1000000000000000103C000000000000103A0E
:103C2000182D4454FB21F93D3326A611460B113CB7
:103C300000000054FB21F93D10B52DED040B2DEDD6
:103C4000088B82B0B0EE419AF0EE619A0B9820F0AA
:103C500000449FED4BABB4F1795F11DA9DED0A0B97
:103C600051EC100BFCF7DEFD002801BFB0EE4A0A54
:103C7000F0EE6A0A02B0BDEC088B04BF04B010BDC0
:103C80009DED0A0B53EC102B51EC100BFCF794FB41
:103C900041EC180B3C480621B0EE480AF0EE680AE9
:103CA000784400F081F853EC182B51EC100BFCF722
:103CB00083FB9DED0A0B41EC1B0B53EC192B51ECD4
:103CC000100BFCF779FB41EC190B53EC1B2B51EC5F
:103CD000180BFCF771FB53EC192BFCF767FB9FEDFE
:103CE0002C0B41EC190B53EC102B51EC180BFCF77F
:103CF00063FB41EC100B2848844210DA53EC192B7B
:103D000051EC100BFCF752FB53EC1A2BFCF751FB58
:103D100041EC100B02B0BDEC088B04B010BD1F4885
:103D2000A042BCBF9FED1E1B8DED001B06DBA4F562
:103D300000100190002000909DED001B51EC100B35
:103D400053EC112BFCF732FB9DED000B41EC180BF3
:103D500053EC102B51EC1A0BFCF728FB41EC1A0B1F
:103D600053EC192B51EC180BFCF720FB53EC1A2BDE
:103D7000FCF71FFB41EC100BCCE70000000000003B
:103D8000000000000000F03F84040000000000007C
:103D9000000000000000E03F3333D33F0000E93F64
:103DA000000000000000D23F70B504462DED028BEC
:103DB0004D1E00EBC500B0EE408AF0EE608A90ED3B
:103DC000000B35F0060017D053EC182B51EC100BFC
:103DD000FCF7F2FA41EC100B6D1E04EBC50090ED00
:103DE000001B51EC100B53EC112BFCF73EFA41EC8D
:103DF000100B35F00600E7D1022D36D0042D1CD073
:103E0000062D1CBFBDEC028B70BD53EC182B51EC82
:103E1000100BFCF7D1FA94ED0A1B53EC112BFCF7B5
:103E200024FA53EC182BFCF7C7FA94ED081B53EC5B
:103E3000112BFCF71AFA41EC100B53EC182B51EC38
:103E4000100BFCF7B9FA94ED061B53EC112BFCF7A1
:103E50000CFA53EC182BFCF7AFFA94ED040B53EC6F
:103E6000102BFCF702FA41EC100B53EC182B51EC21
:103E7000100BFCF7A1FA94ED021B53EC112BFCF78D
:103E8000F4F953EC182BFCF797FA94ED001B53EC64
:103E9000112BFCF7EAF9BDEC028B41EC100B70BD65
:103EA00031B504462DED040B2DED0A8BB0EE41BA71
:103EB000F0EE61BA0B989DED0A0B20F00040B0F1D6
:103EC000795F0DDA51EC100BFFF713FC042808BFE3
:103ED00000F09AF89DED0A0BBDEC0A8B05B030BDE1
:103EE00053EC102B51EC100BFCF766FA41EC180B5D
:103EF0009DED0A0B53EC182B51EC100BFCF75CFA00
:103F000041EC190B2C48B0EE480AF0EE680A052186
:103F10007844FFF749FF9FED2ACBB0EE40AAF0EEC0
:103F200060AA9CB353EC1C2B51EC190BFCF744FA20
:103F300041EC1C0B53EC1A2B51EC190BFCF73CFA1F
:103F40009FED210B41EC190B53EC102B51EC1B0B8B
:103F5000FCF732FA53EC192BFCF728FA53EC182B28
:103F6000FCF72AFA53EC1B2BFCF720FA53EC1C2B22
:103F7000FCF71CFA9DED0A1B53EC112BFCF719FA08
:103F8000BDEC0A8B05B041EC100B30BDFFE753ECE4
:103F90001A2B51EC180BFCF70FFA53EC1C2BFCF707
:103FA00064F953EC192BFCF707FA9DED0A1B53EC4F
:103FB000112BFCF75AF9E3E70C03000000000000A6
:103FC000495555555555C5BF000000000000E03F5C
:103FD00010B553EC102B51EC100BFCF746F941ECEB
:103FE000100B10BD000000009FED050B10B553EC49
:103FF000102B51EC100BFCF751FA41EC100B10BDDB
:1040000000000000000000009FED050B10B553EC10
:10401000102B51EC100BFCF7CFF941EC100B10BD3D
:10402000000000000000001002E008C8121F08C1D4
:10403000002AFAD170477047002001E001C1121F29
:10404000002AFBD17047000001490860704700005A
:10405000F001002082B0CDE9000121F00040019084
:104060009DED000B02B051EC100B7047FDF78EFC7C
:10407000FFF710F8FEF7F8FCFEF7D8FCFEF79CFD02
:10408000FEF7C6FDFEF7F0FDFEF714FE002202214A
:104090003620FDF703FD3620FDF7F4FC0022114623
:1040A0002620FDF7FBFC2620FDF7ECFC0222012177
:1040B0003720FDF7F3FC3720FDF7E4FC0022114622
:1040C0000F20FDF7EBFC0F20FDF7DCFC0022114672
:1040D0000D20FDF7E3FC0D20FDF7D4FC0448FEF7AE
:1040E0004FF80448FEF74CF8FCF71AFCFEE7000016
:1040F0001C020020580200200006101600061016B0
:104100000000000000000000010203040607080987
:104110000000000001020304FF0200000102000091
:1041200002020000030200004C5555555555A53FAD
:104130007751C1166CC156BF9015CB19A001FA3E3C
:10414000AD529C804F7E92BEC4B1B4BD9EEE213E66
:10415000D43888BEE9FAA8BD00004054FB21F93FDD
:104160003163621A61B4D03D0000601A61B4D03D81
:104170007370032E8A19A33B0000002E8A19A33BFB
:10418000C14920259A837B3900000000000000000F
:104190006E83F9A22915444ED15727FCC0DD34F5B2
:1041A000999562DB4190433CAB6351FE61C5BBDE38
:1041B0003A6E24B7E0D24D42EA2E49061C92D1094C
:1041C0001CEB1DFE3EA729B1F53582E88444BB2EC9
:1041D00026709CE9417E5FB439D69139F439538316
:1041E0008B5F849C3B28F9BDFF97F81F0F9805DE75
:1041F0008B112FEF1F6D0A5ACF7E366DB709CB2773
:10420000663F464F2DEA5F9EC7BA27757BF1E5EB07
:10421000F739073DEA92528AB15FFB6B085D8D1F4B
:10422000A6F810111111813FD561C119A0012ABF53
:104230007DFEB157E31DC73EEB9C2B8AE6E55ABED7
:104240007CD5CF5A3AD9E53DCAB9D3C3C7B0CEB4AD
:10425000B3F5CABCBBAFB8C3CDA8D0C5D7E9BCFEC7
:10426000A3A10A00CEB4B3F6B4ED0000CEB4D4DA04
:10427000D7E9BCFE4D6170BAAFCAFDD6D0D5D2B574
:10428000BDB4A6C0EDB8C3CAFDBEDDB5C4D7E9BC98
:10429000FEBAC5A3A10A0000B84200080000002031
:1042A000F4010000620800089C430008F4010020AB
:1042B000540A00003840000841320182101324F4EF
:1042C0001364421B08480401123C244033010316C6
:1042D000D33F8369406021107A36AB3E356F40D5BD
:1042E0000968226C4E87C051DA1B7C613E8740CC46
:1042F0005D4BC807F56EC08821F03FB84082E2C729
:1043000098EFBFB9FC87F4DBD7EFBFFE43FAEDEBC4
:10431000C0EF3F72914FE34803086930F808DC2290
:104320009FC69106EE80680947958C5C6AC6EF3F90
:104330000869306F4D2450B9D48C10A168096655B6
:10434000D050708DE33F086930F80851AB82868207
:104350006BCC3013E136140835301408A12F420815
:10436000C3D007FAF030811364421B0848041A6C6A
:10437000041320051B20980413D0061B20340413BB
:10438000792E1408052D1B082D041A55040411015B
:0C439000010109111301369949000000D9
:04000005080001AD41
:00000001FF
