:020000040800F2
:10000000600D0020C1010008A53100088D2B0008FB
:100010000131000817090008953A000800000000A7
:100020000000000000000000000000009532000801
:10003000A910000800000000F9310008253400086C
:10004000DB010008DB010008DB010008DB01000820
:10005000DB010008DB010008DB010008DB01000810
:10006000DB010008DB010008DB010008DB01000800
:10007000DB010008010D0008DB0100080D0D000880
:10008000190D0008250D0008DB01000825090008EE
:1000900019090008DB010008DB010008DB0100088A
:1000A000DB010008DB010008DB010008DB010008C0
:1000B000DB010008DB010008DB010008DB010008B0
:1000C000DB010008DB010008DB010008DB010008A0
:1000D000DB010008DB010008893A0008DB010008A9
:1000E000DB010008DB010008DB010008DB01000880
:1000F000DB010008DB010008DB010008DB01000870
:10010000DB010008DB010008DB010008DB0100085F
:1001100009360008DB010008313500083D350008CC
:10012000DB010008DB010008DB010008DB0100083F
:10013000DB010008DB010008DB010008DB0100082F
:10014000DB010008DB010008DB010008DB0100081F
:10015000DB010008DB010008DB010008DB0100080F
:10016000DB010008DB010008DB010008DB010008FF
:10017000DB010008DB010008DB01000800000000D3
:10018000DB010008DB010008DB010008DB010008DF
:10019000DB010008DB010008DB010008DB010008CF
:1001A000DB010008DB010008DB010008DFF80CD0F0
:1001B00000F054FB00480047654D0008600D00202A
:1001C0000648804706480047FEE7FEE7FEE7FEE7F1
:1001D000FEE7FEE7FEE7FEE7FEE7FEE7DD340008A8
:1001E000AD0100082DE9F05F0546002092469B46D0
:1001F00088460646814640241BE02846414647463D
:10020000224600F05CFA53465A46C01A914110D378
:1002100011461846224600F043FA2D1A67EB0108F2
:100220004F4622460120002100F03AFA17EB000960
:100230004E41201EA4F10104DFDC484631462A4627
:100240004346BDE8F09F40EA01039B0703D009E065
:1002500008C9121F08C0042AFAD203E011F8013BB2
:1002600000F8013B521EF9D270472DE9FE4F80463F
:1002700081EA0300C00F0C46009021F0004123F0FA
:100280000045B8EB0200A94105D240462146904600
:100290001C460B46024623F00040104347D0270D72
:1002A000C7F30A00C3F30A510290401A0190402894
:1002B0006BDAC3F3130040F4801B0098924620B120
:1002C0000023D2EB030A63EB0B0B01985946C0F1F4
:1002D0004002504600F0E4F906460D4650465946A5
:1002E000019A00F0FCF910EB08006141002487EA54
:1002F000115284EAE7731A4340D0009A62B3019A1C
:10030000012A4FEA075215DC001B61EB02014FF096
:10031000004202EA0752CDE90042001C41F580117B
:1003200032462B4600F033FA03B0BDE8F08F40466A
:100330002146F9E7001B61EB0201001C41F5801327
:1003400000185B412018A2F5001747EB030140EAB3
:10035000D570B6196D4111E06D084FEA360645EAD1
:10036000C0754FEA0752001B61EB0201001C41F50A
:10037000801149084FEA30000019514132462B469E
:1003800003B0BDE8F04F00F0F3B90098012240003F
:100390000023D0EB020263EBE073009821464FEAA2
:1003A000E074B8EB000061EB0401E9E783F000437F
:1003B0005BE781F0004158E72DE9FE4F81EA030435
:1003C00004F0004421F0004100944FF0000B23F0B2
:1003D000004350EA01045ED052EA03045BD0C3F349
:1003E0000A54C1F30A552C44A4F2F3340194A0FB3F
:1003F0000254C1F3130141F48011C3F3130343F416
:10040000801301FB024400FB034E840A970A44EA6E
:10041000815447EA8357A4FB076802958D0A05FBC0
:1004200007854FEA932C04FB0C542705029D4FEAE5
:10043000065847EA1637B5EB08056EEB070C870E32
:10044000920E47EA811742EA8312A7FB0201B6EB3C
:100450000B0164EB00042B0D43EA0C335E1844EBF4
:100460001C50DA465146E7FB0201C5F313044FEA7C
:100470000B3343EA14534FEA0432019C43EA060368
:10048000A4F10C040294009CCDE900B400F07FF9C3
:1004900003B0BDE8F08F00200146F9E72DE9F04DEB
:1004A00081EA030404F0004B21F0004514464FF0AC
:1004B000000A23F0004150EA050220D054EA01026C
:1004C0001DD0C5F30A570246C5F31303C1F3130049
:1004D000C1F30A5640F4801543F48013A7EB0608D5
:1004E000101BD64608F2FD3873EB050002D308F165
:1004F000010801E092185B41B8F1000F03DA002017
:100500000146BDE8F08D00204FF480110646844678
:100510000EE0171B73EB050705D3121B63EB0503F6
:1005200006434CEA010C49084FEA300092185B413F
:1005300050EA0107EDD152EA030012D082EA04002A
:1005400083EA0501084305D0101BAB4106D2012206
:10055000002306E000224FF0004302E06FF00102AA
:1005600053101AEB06004CEB085110EB0A0041EB5C
:100570000B01BDE8F04D00F0FBB80EB5C10F80EAED
:10058000E0700844CA07002140F233438DE80E00B2
:100590000A460B4600F0FBF803B000BD0EB540F272
:1005A000334102910021CDE900110A460B4600F0CB
:1005B000EEF803B000BD00F0004230F000400AD079
:1005C000C10D01F56071C0F3160042EA0151C20885
:1005D00040071143704700200146704730B5041EA4
:1005E00071F1000404DB4FF00044404264EB010170
:1005F000141E73F1000405DB1C464FF00043524209
:1006000063EB04038B4208BF824230BD30B5041E49
:1006100071F1000404DB4FF00044404264EB01013F
:10062000141E73F1000405DB1C464FF000435242D8
:1006300063EB0403994208BF904230BD01F00043D0
:1006400030B421F0004150EA010206D00A0DA2F5B3
:100650006072C1F31301002A02DC30BC0020704735
:10066000440F44EAC104C100E01830BC00EBC250A2
:1006700000F047B830B50B46014600202022012487
:1006800009E021FA02F59D4205D303FA02F5491B60
:1006900004FA02F52844151EA2F10102F1DC30BD76
:1006A000202A04DB203A00FA02F100207047914032
:1006B000C2F1200320FA03F3194390407047202A27
:1006C00004DB203A21FA02F00021704721FA02F3FC
:1006D000D040C2F120029140084319467047202AB9
:1006E00006DBCB17203A41FA02F043EAE07306E05A
:1006F00041FA02F3D040C2F120029140084319466A
:1007000070470029A8BF7047401C490008BF20F06F
:100710000100704710B4B0FA80FC00FA0CF050EA07
:10072000010404BF10BC704749B1CCF1200421FA88
:1007300004F411FA0CF118BF012121430843A3EB83
:100740000C01CB1D4FEA00614FEA102042BF002090
:1007500010BC704700EBC35010440029A4BF10BC6C
:100760007047401C490008BF20F0010010BC7047D2
:1007700010B5141E73F1000408DA401C41F10001A9
:1007800092185B411A4301D120F0010010BD2DE900
:10079000F04D92469B4611B1B1FA81F202E0B0FAF7
:1007A00080F220329046FFF77BFF04460F4640EA76
:1007B0000A0041EA0B0153465A46084313D011463A
:1007C00053EA010019D0C8F140025046FFF777FF05
:1007D00005460E46504659464246FFF761FF08431C
:1007E00005D0012004E020463946BDE8F08D002008
:1007F000054346EAE0762C4337430A986305E40A4A
:10080000A0EB08000022FD0A44EA47540A3002D552
:1008100000200146E9E7010510196941DDE90845B5
:1008200000196941BDE8F04DA2E7C1F30A52C1F3D6
:10083000130140F2FF3341F480119A4202DA0020A2
:100840000146704740F233439A42A2F2334202DC3F
:100850005242FFF734BFFFF723BF0000064C074D9D
:1008600006E0E06840F0010394E807009847103480
:10087000AC42F6D3FFF79EFCF84F00081850000872
:1008800070B5C1F30A5201F000450024C1F3130111
:1008900040F2FF3341F480119A4201DA002070BD2A
:1008A00040F233439A42A2F2334203DC5242FFF752
:1008B00006FF00E090402C43F1D0404270BD70B57F
:1008C0008C1810F8015B15F0070301D110F8013BFB
:1008D0002A1106D110F8012B03E010F8016B01F882
:1008E000016B5B1EF9D12B0705D40023521E0DD4DA
:1008F00001F8013BFAE710F8013BCB1A921C03E028
:1009000013F8015B01F8015B521EF9D5A142D8D35F
:10091000002070BDFEE7FEE7014800F043BE000086
:100920002C020020014800F03DBE00002C020020F7
:10093000F0B504460020DFF898C026680968012554
:10094000244C0346074666451DD12468224E08E024
:1009500056F823C08C4503D15B1D1770D8B2F0BD8B
:100960005B1CA342F4D31E4C00231C4E246807E0FA
:1009700056F823708F4202D115700320F0BD5B1C26
:10098000A342F5D3F0BDDFF85CC06645FAD1DFF8CD
:1009900048C066680CF1040C0BE000BF5CF823E073
:1009A0008E4505D1177020781844401DC0B2F0BDA7
:1009B0005B1CB342F2D30D4C00230B4E246804E0C1
:1009C00056F823708F42D7D05B1CA342F8D3F0BDFA
:1009D000006400408C010020804E0008D0010020FF
:1009E000EC01002000680040BC010020F001002064
:1009F00010B58AB0002104460120CDE9061005910A
:100A0000039100910191029104910890084A206895
:100A1000904201D1099101E00E20099069462046DB
:100A200000F0BCFC204600F0F1FE0AB010BD000052
:100A3000006400402DE9F0430DF11C0E9EE8F01318
:100A40004160012101724761C0F83C8087614465C3
:100A5000C0E90A23C0E91265002280F850208265AF
:100A60000277426382630263C0E9089C0174034910
:100A7000427442720968C160BDE8F0835C010020E5
:100A8000044A03E0487252F82030CB600028F9D1C4
:100A9000704700005C01002010B5064C606802F051
:100AA00093FBA06802F052FBE068BDE8104000F044
:100AB000FDBA00007401002010B50446007C18B98E
:100AC00021460120FFF7DCFFD4E90812204600F0A0
:100AD00007F8002803D0206B401C2063012010BDC4
:100AE00010B5037A13B1012B05D108E092B200686A
:100AF00002F00AF808B1002010BD012010BD93B229
:100B0000846C0A4640682146BDE8104000F06CB88D
:100B1000F0B50DF1140C089E9CE8B00001600021B6
:100B200001724461C0E90A23C563621905648261E8
:100B300080F844100177416381630163C0E908765E
:100B4000012202744174417201490968C160F0BD1B
:100B50005C0100202DE9F041144C277866780FB92C
:100B6000002EFCD000250B614FB1012300F0B2FB39
:100B700018B14F210EA002F097FF257011E02EB1A1
:100B8000022300F0A7FB58B1582106E0A3785BB11F
:100B9000042300F09FFB18B1612105A002F084FF3F
:100BA00065700120BDE8F0810020FBE768010020AE
:100BB0002E2E5C4845524F4C69625C4465765F4915
:100BC0006E746572666163655C436F6D756E6963B3
:100BD0006174696F6E5C436F6D5F43616E447269EF
:100BE0007665722E630000002DE9F0471D4617461A
:100BF00088468146082B04D8FFF7ACFF0120BDE8EA
:100C0000F087680700D0012000EBD506002407E03C
:100C10003A19082341464846FFF79CFF0834761EE0
:100C2000012EF5D8680705D005F007033A194146AB
:100C30004846E1E73A190823F9E7000010B553ECFC
:100C4000112B2DED088BB0EE408AF0EE608A51EC4E
:100C5000180B9FED24ABFFF7A9FB41EC100B2348C9
:100C60009FED239B0078C0B102F06AF8B0EE40BA65
:100C7000F0EE60BAB0EE480AF0EE680A01F0DCFF70
:100C8000B0EE401AF0EE601A53EC1B2B51EC110B36
:100C9000FFF7EBFA41EC100B01E002F051F8B0EE77
:100CA000408AF0EE608A02F029FF53EC192B51ECD8
:100CB000100BFFF7ABFC10D253EC1A2B51EC180BB6
:100CC000FFF7A4FC06D2B0EE490AF0EE690ABDECCB
:100CD000088B10BD9FED080BF9E7B0EE480AF0EE67
:100CE000680AF4E700000000000000002000002077
:100CF0009A9999999999C9409A9999999999C9C034
:100D0000014800F0DBBD0000AC030020014800F00A
:100D1000D5BD00004C030020014800F0CFBD00000D
:100D20006C040020014800F0C9BD00000C04002044
:100D300001681823CAB2103AB2FBF3F2054B6FF305
:100D40000901032A9B5CC36500D9091D816508461A
:100D500070470000604E000810B5014600208B6906
:100D60008A6A4FF0C07453B1B3F5005F15D072B109
:100D7000012A0CD0022A0AD0032A09D104E01AB1B0
:100D8000012A06D0022A03D1C96AC90100D501206F
:100D900010BDC96AA142FAD010BD002AF7D0012ABD
:100DA000F2D0022AF3D0032AF3D010BD30B5046884
:100DB000256825F480252560046863608368402BDE
:100DC000036803D099600068C26030BD9A60006813
:100DD000C16030BD10B5002302E0CC5CC4545B1C84
:100DE0009342FAD310BD000010B504462DED068BDA
:100DF000B0EE408AF0EE608A90ED0A0B90ED061B93
:100E000053EC102B51EC110BFFF7D6FA94ED080BB5
:100E100094ED021B41EC190B53EC102B51EC110B10
:100E2000FFF7CAFA94ED000B41EC1A0B53EC102BB0
:100E300051EC180BFFF7C0FA53EC1A2BFFF715FA19
:100E400053EC192BFFF7B2FA94ED040B41EC190B9C
:100E500053EC102B9FED090B51EC100BFFF71EFB11
:100E600053EC192BFFF7A8FA41EC100B84ED088B1B
:100E700084ED0A0BBDEC068B10BD000000000000E5
:100E80000000F03F10B50446007A00F0B3F90349C2
:100E900051F8201020468847012010BDDC010020B9
:100EA0002DE9F041114C1546074654F825000E4631
:100EB000426D38469047010054F8250080F85010E4
:100EC00054F825000FD0017F142202EB8101324635
:100ED0004158806D08443946FFF77CFF54F82500DF
:100EE000816D31448165BDE8F0810000740100200E
:100EF0002DE9F84F314A00233826D16BDFF8C0B016
:100F000004461D469A4638293BD192F8441029B12F
:100F1000166482F844A00020BDE8F88F38274FF00F
:100F2000040C4FF000094946A7EB0C0801E0884586
:100F300002D910F801C0654410F801C0BCF1AA0F35
:100F400003D0BCF1BB0F02D007E00B4605E0A1F1D6
:100F5000010C634501D14FF00109491CB942E6D3A8
:100F6000B9F1000F05D08BB10120136482F8440061
:100F700020E090F837008DF800009DF80000AA28C6
:100F800001D0166416E03720106413E01664606B1D
:100F9000A8420FD109485C3001F01EFE204600F047
:100FA0003BF918B1A1788BF8001001E08BF800A094
:100FB0000120B1E78BF800A0ADE70000BC060020DF
:100FC000A40100202DE9F843354A00231425D16BF4
:100FD0001C46142937D192F8441011B10020156431
:100FE00026E0142604274FF0000980464946A6EB68
:100FF000070C01E08C4502D918F801703C4418F840
:101000000170AA2F02D0BB2F02D006E00B4604E0ED
:101010004F1EBB4201D14FF00109491CB142E9D337
:101020008DF800909DF8001029B18BB10120136458
:1010300082F8440031E098F813008DF800009DF824
:101040000000AA2801D0156427E01320106424E0D2
:1010500015640169A14220D182782AB11049012A80
:1010600009D0022A16D10EE00E494268D8F80800CD
:10107000C1E900200EE0D0E90123D8F80C00CA65D0
:10108000C1E9183006E0D0E90123D8F80C008A66DF
:10109000C1E91B300120BDE8F8830020FBE7000018
:1010A00084050020940100207047000010B588B02E
:1010B0000F490DF10C0C08240C4B0A228CE81E0081
:1010C000A1F16803A1F1380200218DE80E00094B5F
:1010D000094A0A49FFF7AEFC0848FFF789FC08B047
:1010E0000321BDE81040054800F0E0B8C001002031
:1010F0004809002099320008850E00082C020020C3
:1011000070B5314C00252DED028B207DF0B1E07DD6
:10111000401CC0B2E075218B01EBC10202EB011152
:1011200000EB810085B2A07D284951F820102846A7
:10113000884751EC100BFFF781FA2060E07D6328AF
:1011400004D90020E075208B401C2083A068FFF7A5
:1011500032FA41EC100B1E48FFF746FE51EC100B23
:10116000FFF76CFAE060617D79B1FFF724FA41EC9A
:10117000180B2068FFF71FFA41EC100BB0EE481A6D
:10118000F0EE681AFFF75AFD04E02068FFF713FA43
:1011900041EC100B51EC100BFFF750FA206194ED6D
:1011A000030A0023BDEEC00A10EE100A94ED000AF7
:1011B00002B2BDEEC00A10EE100A01B2284600F0DD
:1011C00009F8BDEC028B70BD080200202801002048
:1011D0009800002030B4054C20806180E380A2801C
:1011E00030BC0221024801F004BD0000AA01002029
:1011F00018070020024610B50020064B014600BF2C
:1012000053F82140944201D1C8B210BD491C0229B3
:10121000F6D310BDD001002010B581780124082933
:1012200013D2DFE801F01313041313131313084947
:10123000806808600878012801D018B106E002F043
:10124000BFF803E002F0DEF800E00024204610BD05
:10125000A601002010B50A781249082A1CD2DFE83E
:1012600002F01B1B04080B11171D4A6802608968F5
:1012700011E018220C4902E00B4918221831FEF740
:10128000E2FF09E0084C30341ECC80E81E0003E089
:10129000CA68026009694160012010BD02491C2230
:1012A0004031ECE7A6010020CC07002090F8202078
:1012B000012A09D090F82020022A05D0416A41F481
:1012C0008021416201207047006842690A434261FF
:1012D00000207047F0B590F82040012C07D090F81E
:1012E0002040022C03D0416A41F4802153E004687D
:1012F000A5686D0105D4A5682D0102D4A568ED008F
:1013000046D5A4680125C4F30164A5401D608D681D
:101310004FF4C0739DB1CE6835434E6845EAC605AB
:10132000066803EB0417F5514FF4C275076805EB27
:1013300004150E697E51097D012905D009E00E884A
:10134000CD6845EA4655EBE701684E5946F480768C
:101350004E511179D2F805504FF4C67641EA052175
:10136000056806EB0416A9511178D2F801204FF454
:10137000C47541EA0221026805EB04155151006869
:1013800003EB0411425842F0010242500020F0BD2C
:10139000416A41F4001141620120F0BD10B590F89E
:1013A0002020012A09D090F82020022A05D0416A85
:1013B00041F480214162012010BD3A48D0F800225A
:1013C00042F00102C0F80022D0F8002222F47C5240
:1013D000C0F80022D0F800224B6A42EA0322C0F88B
:1013E00000220B7D01229A40D0F81C329343C0F8B2
:1013F0001C32CB69B3B9D0F80C329343C0F80C322D
:101400008C894B6864F31F434C6900EBC404C4F837
:1014100040320C890B6864F31F434C6900EBC40431
:10142000C4F84432CB69012B16D1D0F80C321343E7
:10143000C0F80C320C884B6864F31F434C6900EB16
:10144000C404C4F840320C89CB6864F31F434C6970
:1014500000EBC404C4F844328B69002BD0F804328A
:101460000ED01343C0F804320B69002BD0F81432AD
:1014700008D01343C0F81432096A012904D008E0E7
:101480009343EFE79343F5E7D0F81C121143C0F8FC
:101490001C12D0F8001221F00101C0F80012002047
:1014A00010BD000000640040704730B590F8204047
:1014B000012C07D090F82040022C03D0416A41F45F
:1014C000802109E011B1012909D00CE00468E46829
:1014D00007E0416A41F400114162012030BD046817
:1014E0002469A407F5D04FF4D874056804EB0114FF
:1014F0002D5915F00405956005682D5942D0ED0869
:10150000556005682C59C4F34004D4604FF4DA7474
:10151000056804EB01142D5905F00F0515610568E8
:101520002D59C5F30725956105682C59240C546184
:101530004FF4DC72046802EB0112A4581C700468BA
:10154000A458240A5C700468A458240C9C70046895
:10155000A258120EDA704FF4DE72046802EB011228
:10156000A4581C710468A458240A5C710468A45827
:10157000240C9C710468A258120EDA7129B1012959
:1015800009D00DE06D0D1560BBE70068C16841F042
:101590002001C16004E00068016941F0200101619F
:1015A000002030BD2DE9F05F054600680024466943
:1015B000D0F804908768D0F80CB0D0F810A0D0F81C
:1015C0001880F10748D0F90714D001218160B807CD
:1015D00003D5284600F048F90CE0780702D54FF40F
:1015E000006407E0380702D54FF4805402E0284633
:1015F00000F038F9F80516D529684FF48070886036
:10160000B80503D5284600F037F90CE0780502D577
:1016100044F4005407E0380502D544F4804402E065
:10162000284600F027F9F80316D529684FF48030D2
:101630008860B80303D5284600F026F90CE078034B
:1016400002D544F4004407E0380302D544F4803462
:1016500002E0284600F016F9300707D55FEACB60B4
:1016600004D52968102044F40074C86070074FF056
:10167000080707D55FEA0B7004D52868C7602846BD
:1016800000F08EF8B00706D52868C068800702D041
:10169000284600F087F8700607D55FEACA6004D5CF
:1016A0002968102044F480640861B00607D55FEA19
:1016B0000A7004D528680761284600F0A3F8F006F0
:1016C00006D528680069800702D0284600F09BF8FC
:1016D000B00308D55FEAC96005D5296810204860C5
:1016E000284600F091F8F00307D55FEA097004D5A9
:1016F00028684760284600F0CDF8300446D55FEAF8
:10170000497040D5F00504D55FEAC87001D044F0B7
:101710000104B00504D55FEA887001D544F00204E5
:10172000700504D55FEA487001D544F00404300523
:1017300029D518F0700F26D008F07000402815D079
:1017400006DC102809D020280AD0302816D10AE05B
:1017500050280ED0602811D10EE044F008040DE0AE
:1017600044F010040AE044F0200407E044F0400490
:1017700004E044F0800401E044F480742868816946
:1017800021F070018161296804204860002C05D097
:10179000686A204368622846FFF786FEBDE8F09F2E
:1017A00070470000F8B5144C0646234603F10C02BE
:1017B0000021FFF77AFE04F10C056A462868A06054
:1017C00029463046FFF7B4F80C49040004D051F81C
:1017D0002410087C18B105E00968022000E001200F
:1017E000FFF74EF906489DF80020296950F822308D
:1017F000224601489847F8BD0005002074010020EA
:101800006C010020704770477047000070B50446B7
:1018100090F82000012804D0606A40F40020606243
:1018200018E0022084F820002068016821F00101FE
:10183000016000F09FFA05460EE000BF00F09AFA42
:10184000401B0A2808D9606A40F400306062052015
:1018500084F82000012070BD20684068C007EDD1E9
:10186000606270BD70470000014901200870704738
:10187000680100207047000001490120487070474E
:1018800068010020704700000149012088707047FE
:1018900068010020704790F83510022903D080219C
:1018A000416501207047052180F835100068016806
:1018B00021F0010101600020704700002DE9F8438C
:1018C00004464FF00009CDF8009063484FF41651DC
:1018D000A56D0068B0FBF1F72E6894F85C10082045
:1018E00000FA01F131420FD021680A6852070BD586
:1018F0000A6822F004020A6094F85C108840A8602C
:10190000606D40F00100606594F85C104FF00108D4
:1019100008FA01F0304208D021684969090604D567
:10192000A860606D40F00200606594F85C100420CF
:101930008840304208D021680968890704D5A8602A
:10194000606D40F00400606594F85C1010208840E1
:10195000304218D021680968090714D5A8602068AA
:101960000168490304D50068000308D5A16C07E0AD
:101970000168C90503D4016821F008010160216CE8
:1019800009B12046884794F85C10202088403042F6
:1019900031D021680968C9062DD5A86094F83500B2
:1019A00005282068016806D0490347D50068000370
:1019B0001DD4616C1CE021F01601016020684169B2
:1019C00021F080014161206C08B9A06C20B1206831
:1019D000016821F00801016094F85C103F20884004
:1019E000A86084F8349084F83580216D1FE0E16BA5
:1019F00009B120468847606D00282BD0606DC00774
:101A000014D0052084F835002068016821F0010118
:101A100001600098401C0090B84203D8206800681C
:101A2000C007F6D184F8349084F83580E16C002941
:101A300010D001B02046BDE8F04308470168C90551
:101A4000D5D4016821F01001016084F8349084F845
:101A50003580CCE7BDE8F883100000202DE9F04187
:101A6000044600F087F906465CB1002584F834503E
:101A7000022084F835002068016821F0010101602E
:101A80000DE00120BDE8F08100F074F9801B05280D
:101A900005D920206065032084F83500F2E720682E
:101AA0000068C007F0D12268116820480140D4E9DD
:101AB00001031843D4E903363343184363691843D9
:101AC000A3691843E3691843236A18430843616A0A
:101AD000042903D1D4E90B1319430843106020688B
:101AE0004069666A20F0070130460E43012704284A
:101AF0000CD1A06A0643E06A40B12046FFF72CF9FA
:101B000020B14020606584F83570BAE720684661EE
:101B10002046FFF70DF994F85C203F219140816049
:101B2000656584F835700020ACE700003F8010F058
:101B30002DE9F0410446866D90F834000025012817
:101B40000DD0012084F8340094F835700020012F66
:101B500007D084F8340002252846BDE8F081022031
:101B6000FBE7022784F8357060652046FFF71EF911
:101B700094F85C103F208840B0602068016841F014
:101B8000160101602068416941F080014161206CCB
:101B900020B12068016841F00801016020680168F7
:101BA00041F001010160D7E72DE9F84FDFF890B16E
:101BB00000224FF001084FF0030A4FF00F090BF11C
:101BC000040E00BF0B6808FA02F42340A3426ED152
:101BD0004D68022D01D0122D0ED1D50800EB850CD9
:101BE000DCF820505607F70E09FA07F6B5430E69E0
:101BF000BE402E43CCF82060066855000F790AFAE3
:101C000005FC07F0030726EA0C06AF4037430760E0
:101C10004E68012E05D0022E03D0112E01D0122EB7
:101C20000ED18768CE6827EA0C07AE403E43866037
:101C30004668A6430C79C4F30014944034434460CE
:101C4000C4688E6824EA0C04AE402643C6604C6823
:101C5000E4006FD53B4C256845F480452560246839
:101C600022F0030504F480440094374C2E19D6F872
:101C7000084895072F0F09FA07F5AC43334DA842E2
:101C800001D100252EE0324DA84201D1012529E0E5
:101C9000304DA84201D1022524E02F4DA84201D1A8
:101CA00003251FE02D4DA84202D104251AE041E092
:101CB0002B4DA84201D1052514E02A4DA84201D19F
:101CC00006250FE0284DA84201D107250AE0274D3F
:101CD000A84201D1082505E0254DA84201D10925DA
:101CE00000E00A25BD402543C6F80858DBF800404F
:101CF0005D464E689C43F60300D51C432C60DEF81D
:101D0000004075464E689C43B60300D51C432C60CA
:101D10000B4D08352C684E689C43F60200D51C43D9
:101D20002C60074D0C352C684E689C43B60200D5DC
:101D30001C432C60521C102AFFF444AFBDE8F88FFE
:101D4000003C0140443802400030014000000240A5
:101D50000004024000080240000C02400010024053
:101D60000014024000180240001C02400020024003
:101D700000240240014880687047000004000020F1
:101D80000248816802781144816070470400002095
:101D90000B4810B5016841F400710160016841F41D
:101DA00080610160016841F480710160032000F0EE
:101DB00097F8002000F006F800F024F8002010BD8D
:101DC000003C024070B50D4D04464FF47A712878FE
:101DD000B1FBF0F00A490968B1FBF0F000F055FBE7
:101DE00048B9102C07D200222146501E00F058F8A6
:101DF00000206C6070BD012070BD00000400002058
:101E0000100000201F4808B5016841F480410160BE
:101E1000006800F4804000901A48001F016841F0FB
:101E200080510160006800F080500090052000F0B3
:101E300057F8002211466FF00B0000F031F8002235
:101E400011466FF00A0000F02BF8002211466FF0E7
:101E5000090000F025F800221146501F00F020F87C
:101E600000221146101F00F01BF800221146901EA0
:101E700000F016F80022BDE808401146501E00F0A0
:101E80000FB800004438024000F01F0201219140C9
:101E90004009800000F1E020C0F800117047000008
:101EA000F0B40E4B1B680C46C3F30223C3F10705C5
:101EB000042D00D90425191D072901D2002300E0B3
:101EC000DB1E012606FA05F1491E214099409E407D
:101ED000761E16403143F0BC01F065B90CED00E010
:101EE000064900F0070208684FF6FF03184040EA71
:101EF0000220034A10430860704700000CED00E028
:101F00000000FA052DE9F8431748016841F08051B7
:101F100001600068154F00F08050012600903E647B
:101F2000FFF728FF05464FF47A78114C05E000BF13
:101F3000FFF720FF401B40450DD86068C003F7D570
:101F40007E64FFF717FF0546464607E0FFF712FFDE
:101F5000401BB04202D90320BDE8F88360688003CB
:101F6000F4D50020F8E700004038024000000E429F
:101F7000007000402DE9F0470E46050065D0DFF8FF
:101F80001481D8F80000F7B200F00F00B04207D279
:101F900088F80070D8F8000000F00F00B04254D16B
:101FA00028683D4C810712D5400703D5206840F4CE
:101FB000E05020602878000703D5206840F4604096
:101FC00020602068A96820F0F0000843206028788D
:101FD000C0072DD0304968680839012812D002287E
:101FE00013D0032811D00968890700292DDA216848
:101FF00021F0030101432160FFF7BCFE814641F25D
:10200000883A0EE009688903EFE709688901ECE77F
:10201000FFF7B0FEA0EB0901514502D90320BDE84E
:10202000F0872068696800F00C00B0EB810FEFD1F9
:10203000D8F80010404601F00F01B14207D90770EF
:10204000006800F00F00B04201D00120E7E72878D7
:10205000400705D52068E96820F4E0500843206077
:102060002878000706D52068296920F4604040EAF6
:10207000C100206000F03CF82168084AC1F3031158
:10208000515CC840064908600020FFF79BFE002015
:10209000C5E70000003C024008380240684E0008D6
:1020A0001000002001480068704700001000002068
:1020B0000448054900680968044AC1F38221515C5B
:1020C000C84070471000002008380240784E0008D1
:1020D0000448054900680968044AC1F34231515C6B
:1020E000C84070471000002008380240784E0008B1
:1020F000154810B5006810F00C02144813D01449AC
:10210000042A0FD0082A0ED10F4C241F22682368FE
:1021100002F03F025B0207D52068C0F38810A0FBE5
:10212000010106E0084610BD2168C1F38811A1FB3A
:1021300000010023FEF756F82168C1F30141491C54
:102140004900B0FBF1F010BD083802400024F40053
:1021500040787D012DE9F84F050076D02878DFF82A
:10216000F8B2BE4CC00749D0DBF800105846C1F3A6
:102170008101012908D00068C0F3810002280AD13A
:10218000201D0068400206D52068800336D56868A7
:102190000028E2D032E06868B0F5803F10D0B0F59A
:1021A000A02F206810D020F480302060206820F418
:1021B000802020606868A0B1FFF7DCFD06460CE0D7
:1021C000206840F48030F4E740F480202060F7E796
:1021D000FFF7D0FD801B642873D820688003F7D5F3
:1021E0000CE0FFF7C7FD064605E000BFFFF7C2FDA4
:1021F000801B6428F0D820688003F7D42878DFF8A3
:10220000608280074FF000093ED5DBF80010584689
:1022100011F00C0F09D00068C0F3810002280BD127
:102220008D48001F0068400206D42068800715D53D
:10223000E868012809D111E0E868B8B10120C8F8C0
:102240000000FFF797FD064605E002E1FFF792FD6B
:10225000801B0228C0D820688007F7D5206829692C
:1022600020F0F80040EAC10020600DE0C8F80090BE
:10227000FFF780FD064604E0FFF77CFD801B022887
:102280001FD820688007F7D42878000722D5724E1F
:10229000744869696C3671B101210160FFF76AFD0C
:1022A000074604E0FFF766FDC01B022809D8306826
:1022B0008007F7D50EE0C0F80090FFF75BFD0746FA
:1022C00005E083E0FFF756FDC01B02287ED830688A
:1022D0008007F7D42878400768D5DFF87CA100276D
:1022E0000AF1380ADAF80000C0000BD4DAF800105E
:1022F00041F08051CAF80010DAF80000012700F020
:1023000080500090584E3068C00510D4306840F4BA
:1023100080703060FFF72EFD009005E0FFF72AFD8A
:102320000099401A022851D83068C005F6D54A4EA7
:10233000A868683601280FD00528306810D020F032
:1023400001003060306820F004003060A868B8B147
:10235000FFF710FD00900FE0306840F00100F4E757
:1023600040F004003060F7E7FFF704FD0099411AE0
:1023700041F28830814264D830688007F4D50EE09D
:10238000FFF7F8FC009007E0FFF7F4FC0099411A12
:1023900041F28830814254D830688007F4D42FB19C
:1023A000DAF8001021F08051CAF80010A869C0B313
:1023B000DBF80010C1F3810102294AD00228484607
:1023C00007D0C8F86000FFF7D5FC00E039E005460B
:1023D0003AE04746C8F86000FFF7CCFC064604E048
:1023E000FFF7C8FC801B02282BD820688001F7D497
:1023F000D5E907010843A96A1C4A490802EB0141D3
:102400006A6A41EA8211084395F82C1040EA01619A
:102410001148001F016001203866FFF7ABFC05463C
:1024200005E014E0FFF7A6FC401B022809D820684D
:102430008001F7D50BE000BFFFF79CFC401B022892
:1024400002D90320BDE8F88F20688001F4D4002071
:10245000F8E70120F6E700000838024000380240A3
:1024600000004742800E4742007000400000FFFF1E
:102470004FF0E0210428086903D020F0040008612F
:10248000704740F00400FAE7704710B5401EB0F105
:10249000807F01D3012010BD4FF0E02460610F2147
:1024A000601700F080FE0020A0610720206100205E
:1024B00010BD10B5FFF7E8FF10BD7047704730B58D
:1024C00090F83820012A20D0012280F838200223F9
:1024D00080F8393003685C6824F070045C6003683D
:1024E0005C680D682C435C6003689C6824F0800481
:1024F0009C6003689C6849680C439C6080F83920A4
:10250000002180F83810084630BD022030BD10B5DB
:10251000040003D094F8390010B107E0012010BD89
:10252000002084F83800204600F00CF8022084F8DF
:102530003900211D206801F007F8012084F83900D6
:10254000002010BD08B50C4A01680C48914207D123
:10255000016841F010010160006800F0100009E01E
:10256000074A914207D1016841F0200101600068EB
:1025700000F02000009008BD0010004040380240EC
:10258000001400400168CA6842F00102CA60006895
:10259000016841F00101016000207047704770B58B
:1025A0000446006801694FF00005C943890715D446
:1025B000C168C943890711D4E91E01610120207651
:1025C000206880698007204602D0FFF7E7FF04E01B
:1025D00000F098F8204600F096F82576206801690A
:1025E000C943490717D4C168C943490713D46FF0D9
:1025F00004010161022020762068806910F4407F88
:10260000204602D0FFF7CAFF04E000F07BF8204626
:1026100000F079F8257620680169C943090716D4C6
:10262000C168C943090712D46FF008010161042091
:1026300020762068C0698007204602D0FFF7AEFFF1
:1026400004E000F05FF8204600F05DF82576206891
:102650000169C943C90617D4C168C943C90613D45F
:102660006FF010010161082020762068C06910F425
:10267000407F204602D0FFF791FF04E000F042F8CF
:10268000204600F040F8257620680169C943C90753
:1026900008D1C168C943C90704D1891E0161204618
:1026A00000F032F820680169C943090609D4C168FD
:1026B000C943090605D46FF0800101612046FFF788
:1026C000FCFE20680169C943490609D4C168C943B1
:1026D000490605D46FF040010161204600F028F85A
:1026E00020680169C94389060BD4C168C9438906BA
:1026F00007D46FF0200101612046BDE87040FFF76C
:10270000DDBE70BD70477047074988420AD107484F
:102710000178491CC9B20170012903D90021017057
:10272000FEF7EEBC704700005402002000000020BD
:102730007047704770B5026804461068D1685369E5
:1027400010F00F0F50D003F0010501F490763543DF
:102750005DD0C20705D0CA0503D5E26B42F0010285
:10276000E263420705D5DA0703D0E26B42F00202CA
:10277000E263820705D5DA0703D0E26B42F0040278
:10278000E263020705D5DA0703D0E26B42F00802E4
:10279000E263E26B002A33D0800604D5880602D5B6
:1027A000204600F0A2FF20684069E16BC0F3801072
:1027B000090700D428B3204600F080FF2068416953
:1027C00049061AD5416921F040014161606BA0B111
:1027D0001B490165606BFFF75EF8002810D0606B45
:1027E000016DBDE870400847830610D58B060ED5F5
:1027F0002046BDE8704000F078BF2046FFF799FF03
:1028000070BD2046FFF795FF0020E06370BD030612
:1028100006D50B0604D52046BDE8704001F002B98C
:102820004006F3D54806F1D5D168204621F0400195
:10283000D160202184F8391000F0A6F970BD0000A5
:102840001536000870B5040004D094F8390000254E
:1028500010B106E0012070BD84F83850204600F029
:1028600023F8242084F839002068C16821F400513D
:10287000C160204600F080FF2068016921F490418A
:1028800001612068416921F02A0141612068C16825
:1028900041F40051C160E563202084F8390084F8D8
:1028A0003A00002070BD00002DE9F0470446D0F842
:1028B00000C05548DFF84C81032102220123534E0A
:1028C0000025470586B04FF040094FF4806AC445A3
:1028D0004BD1D0F800C04CF4002CC0F800C0006808
:1028E00000F4002005908DE80E000820CDE90310CB
:1028F00069463046FFF758F9464E4548D046C6E986
:10290000035A7561B561F5613562756286E88102C9
:102910003046FFF7A3F818B184213FA001F0C4F8B6
:102920002663B4633B4E3A48603630383060C6E9BF
:102930000175C6E903587561B561F56135623046C8
:102940007562FFF78BF818B1962133A001F0ACF84F
:102950006663002211463420B463FFF7A1FA3420E5
:10296000FFF792FA06B0BDE8F087DFF8BC80C445F7
:10297000F8D1D0F800C04CF4003CC0F800C00068AA
:1029800000F4003005900C208DE80D000720CDE903
:10299000031069463046FFF707F91E4E1C48C03643
:1029A000B846C6E9035A75613030B56186E801035F
:1029B0004FF40030C6E90750574630467562FFF7BE
:1029C0004DF818B1C32114A001F06EF82663B4636A
:1029D0000F48164E18303060C6E90185C6E9035726
:1029E00075614FF44030B561C6E9075030467562F5
:1029F000FFF734F818B1D52107A001F055F8666348
:102A0000B463AFE7004C0040403802400000024091
:102A1000706002404C0300202E2E2F5372632F75DE
:102A2000736172742E630000004400406C04002047
:102A300090F83A30202B1DD1D1B1CAB190F838307E
:102A4000012B17D081628285C2850021C1632222B9
:102A500080F83A2080F8381001684A6942F0010293
:102A60004A610068C16841F49071C16000207047FC
:102A700001207047022070472DE9F047824600F0A0
:102A800013FE204C05004FF0140854F825100F7F5A
:102A90000E6C08EB870051F8009002D0087C18B14A
:102AA00005E00220216800E00120FDF7E9FF54F86D
:102AB0002510AFB15FF0000208EB8200B2B20958F6
:102AC0005046FFF7B5FF54F82500816A484688470D
:102AD000002854F8250005D0416B491C416304E0EF
:102AE0000122E9E7816B491C816354F82500C66324
:102AF00054F82500017F19B100210177BDE8F08766
:102B00000121FAE77401002070B5044690F83900FD
:102B1000202830D169B362B394F8380001282AD054
:102B2000012084F838002162A284E2840025E56354
:102B3000212084F83900236B1048D863236B104898
:102B40001864236B0F48D864206B1346056526680C
:102B5000206B321DFEF7ECFF21686FF0400008602B
:102B600084F838502068416941F0800141610020BB
:102B700070BD012070BD022070BD00006F360008DE
:102B80009D3600082536000870477047FEE70000B4
:102B900010B5002202720124447202614261C160D8
:102BA00033B183610449427009684160047010BD0B
:102BB00002498161F6E700001400002015090008B1
:102BC000044A03E0487052F820304B600028F9D1E5
:102BD000704700001400002010B50446007818B9B2
:102BE00021460120FFF7ECFF0120607200202072D7
:102BF00010BD70B5044600780D4618B92146012075
:102C0000FFF7DEFF607A40B1002060722061E0686B
:102C1000C16A2846BDE8704008472069401C206111
:102C20006169002907D0884205D901202072A06976
:102C3000BDE87040004770BD2DE9F0413C4E2DEDE0
:102C4000048BB0EE409AF0EE609A96ED000B51ECDA
:102C5000190B53EC102BFDF7AFFB41EC180B354D66
:102C6000012400BF05EBC40010ED020B06EBC4000D
:102C700053EC102B90ED001B51EC110BFDF79CFB5E
:102C800053EC182BFDF7F1FA641C41EC180BE4B27D
:102C9000032CE7D9264F274E0124203716F11806BA
:102CA00006EBC40010ED020B07EBC40053EC102B35
:102CB00090ED001B51EC110BFDF77EFB53EC182B34
:102CC000FDF777FB641C41EC180BE4B2032CE7D949
:102CD00097ED000B53EC102B9FED170B51EC100BE5
:102CE000FDF7DCFB53EC182BFDF766FB41EC100BFA
:102CF0005FF0030005EBC001401E11ED021B10F058
:102D0000FF0081ED001BF5D185ED009B5FF0030016
:102D100006EBC001401E11ED021B10F0FF0081ED1B
:102D2000001BF5D186ED000BBDEC048BBDE8F081F6
:102D300058000020D0040020000000000000F03FF8
:102D400010B5334C2DED068BB0EE409AF0EE609A44
:102D50009FED2D8B00F0D2FE94ED0A1B51EC100B71
:102D600053EC112BFDF73AFC0BD294ED080B51EC10
:102D7000190B53EC102BFDF778FA9FED268BC4E965
:102D8000080194ED0C0B51EC190B53EC102BFDF7D3
:102D90000DFB94ED061B53EC112BFDF70DFB9FED86
:102DA0001F1B53EC112BFDF707FB9FED1E1B53EC74
:102DB000112BFDF773FB94ED040B41EC1A0B53EC54
:102DC000102B51EC180BFDF7F7FA94ED081B53ECA0
:102DD000112BFDF7F1FA94ED020B41EC180B53ECBB
:102DE000102B51EC190BFDF7E7FA53EC182BFDF7FC
:102DF0003CFA53EC1A2BFDF738FA84ED0C9B41ECAE
:102E0000100BBDEC068B10BD0000000000000000A0
:102E100020000020000000000000F03F0000000043
:102E200000408F4000000000000024400D4808B51D
:102E3000016841F4001101600068002200F40010F4
:102E4000009011461020FFF72BF81020FFF71CF818
:102E5000002211461120FFF723F8BDE80840112099
:102E6000FFF712B83038024070B5494886B00024E8
:102E7000016841F010010160016801F01001059145
:102E8000016841F480710160016801F4807105916D
:102E9000016841F004010160016801F0040105913D
:102EA000016841F020010160016801F020010591F5
:102EB000016841F080010160016801F08001059125
:102EC000016841F001010160016801F00101059113
:102ED000016841F002010160016801F00201059101
:102EE000016841F040010160016801F04001059175
:102EF000016841F00801016000684FF6FF7600F0BC
:102F00000800009605900325CDE901546946214843
:102F1000FEF74AFE3011CDE90005694602941E48CD
:102F2000FEF742FE0096CDE9015469461B48FEF7C4
:102F30003BFE0096CDE9015469461948FEF734FE80
:102F4000F01ECDE90005694602941648FEF72CFEF6
:102F500048F2F070CDE90005694602941248FEF788
:102F600023FE0096CDE9015469461048FEF71CFE89
:102F70000096CDE9015469460D48FEF715FE00960E
:102F8000CDE9015469460B48FEF70EFE06B070BD50
:102F90003038024000100240002002400008024089
:102FA00000140240001C02400000024000040240E5
:102FB00000180240000C02401CB510480E490024C5
:102FC00001605921C0E9011441F28731C160FFF766
:102FD0009EFA18B142210AA000F066FD00946946ED
:102FE00006480194FFF76BFA002803D0492104A09A
:102FF00000F05AFD1CBD00000010004054020020EB
:103000002E2E2F5372632F74696D2E630000000003
:103010001CB510480E49002401605921C0E9011473
:1030200040F2E731C160FFF772FA18B158210AA0E7
:1030300000F03AFD0094694606480194FFF73FFA14
:10304000002803D05F2104A000F02EFD1CBD00006D
:1030500000140040900200202E2E2F5372632F7414
:10306000696D2E63000000000D4810B50B4901602A
:103070004FF4E1314160002181600C22C160C0E960
:1030800004128161C161FFF7DDFB002805D0BDE8B6
:103090001040472103A000F007BD10BD004C0040C8
:1030A000CC0200202E2E2F5372632F757361727421
:1030B0002E6300000D4810B50B4901604FF4E1315B
:1030C0004160002181600C22C160C0E9041281616D
:1030D000C161FFF7B7FB002805D0BDE810405A21B9
:1030E00003A000F0E1BC10BD004400400C03002030
:1030F0002E2E2F5372632F75736172742E6300002E
:10310000FEE70000044A01881180921F4188118067
:10311000911F80880880704700020020044A0188BF
:103120005180921F41885180911F8088488070474C
:1031300000020020044A01889180921F41889180FA
:10314000911F808888807047000200201FB50446C8
:10315000002301461A460F48FFF71AFD0D4A28239F
:103160001C32382102F128008DE80F000A4B0B4A6F
:103170000B492046FDF7CCFC06485C38808F82B2B4
:10318000207F04EB8000416904B00548BDE8104091
:10319000FFF74EBC18070020A5320008F10E00080A
:1031A0000C03002070470907090E002806DA00F01A
:1031B0000F0000F1E02080F8141D704700F1E020BE
:1031C00080F80014704700001FB507490824054B1C
:1031D00014228DE81E00054B054A0649FDF798FCB0
:1031E0001FBD00009C010020F80500200D330008E1
:1031F000C50F00080C030020704700002DE9F047C0
:103200001F4C15460F4654F8251014230A7F03EB74
:10321000820291F8503051F8029043B18B6DD1F891
:103220003C8003EB070C0026C44506D98E652A4670
:103230003946BDE8F047FDF733BE4B4401463A46F8
:103240001846FDF7C7FD54F82500816D39448165A6
:1032500054F82500C26B91420CD3866554F82500C2
:10326000816A48468847002854F8250004D0416BFD
:10327000491C4163BDE8F087816B491C8163F9E714
:1032800074010020024951F82210896A08470000A1
:1032900074010020704700000148FDF70DBC0000DC
:1032A000280800202DE9F041154E0546AA20346A71
:1032B0002070BB2060701348A5700078E07015FB8B
:1032C00000F047F62E414843A11C6060881DFDF7C1
:1032D000C1FF0021726A07460846121F02E0235C04
:1032E000401C19449042FAD305486162FDF7E4FBA3
:1032F000002802D0044805703846BDE8F08100007F
:10330000BC060020A4010020A50100200B4A30B417
:10331000116AAA230B70BB234B7088700020C87001
:10332000536A02461B1F02E00C5C401C2244984278
:10333000FAD34A6030BC0148FDF7BEBB84050020CB
:1033400010B500EB80002DED028B4000FDF726F953
:103350009FED180B194C53EC102B41EC180B94ED0E
:10336000020B51EC100BFDF727F853EC182BFDF76F
:1033700023F894ED041B53EC112BFCF776FF41EC82
:10338000100B00F0C5FBB0EE408AF0EE608AB4F995
:103390000000FDF7F2F853EC182BFDF70DF894ED53
:1033A000061B53EC112BFCF760FFBDEC028B41ECCC
:1033B000100B10BDB2CD8BB665BC793F3801002033
:1033C00003480021C1750183012101757047000088
:1033D000080200200A4910B500EB80004A889FEDE2
:1033E000060B4000904205D3B1F90000FDF7C5F887
:1033F00041EC100B10BD00000000000000000000B8
:103400003801002005480021017590ED010A80ED8A
:10341000000A9FED030A80ED040A704708020020AD
:103420000000000010B5FEF7ABFCBDE81040FFF750
:1034300040B8000030B5274893B00025016841F03E
:1034400080510160006800F08050119022480168AE
:1034500041F4404101600068022400F440401190B2
:103460000120039010200490009406940820CDE9D8
:103470000750B420CDE9090404200B906846FEF7FC
:1034800069FE00B1FEE7FEF73DFD00B1FEE70CA9C5
:103490000F2081E831004FF4A0500F904FF480507E
:1034A000109005210CA8FEF765FD00B1FEE7FEF7C0
:1034B000F9FD4FF47A71B0FBF1F0FEF7E6FF04205E
:1034C000FEF7D6FF00221146501EFEF7E9FC13B0AE
:1034D00030BD0000403802400070004010480168D4
:1034E00041F4700101600F48016841F00101016081
:1034F0000C4A00210832116002680B4B1A4002602E
:10350000031D0A4A1A60026822F4802202600548FC
:103510000C3001600249580680390860704700008D
:1035200088ED00E000380240FFFFF6FE1030002476
:103530000148FFF734B80000540200200148FFF7AB
:103540002EB8000090020020F0B50268234B244DF5
:10355000244E254F254C4FF0804C984209D06045B1
:1035600007D0A84205D0B04203D0B84201D0A04253
:1035700004D122F0700E4A6842EA0E0298421BD033
:10358000604519D0A84217D0B04215D0B84213D028
:10359000A04211D0164DA8420ED0164DA8420BD015
:1035A000154DA84208D0154DA84205D0144DA8428B
:1035B00002D0144DA84203D122F44075CA682A43B0
:1035C00002608A68C2620A688262984201D0A042A0
:1035D00001D10969016301214161F0BD0000014091
:1035E0000004004000080040000C004000040140BE
:1035F00000400140004401400048014000180040E4
:10360000001C0040002000400148FFF793B8000074
:10361000CC02002010B5806B0021C185C184FFF76A
:1036200088F810BD70B5846B2068406994F8391033
:10363000C0F3C0100025212904D118B1E58420462B
:1036400000F04AF82068406994F83A10C0F38010FE
:10365000222904D118B1E585204600F02FF8E06B4F
:1036600040F01000E0632046FFF763F870BD10B52E
:103670000146806B09680968C9050CD40021C18422
:1036800001684A6922F080024A610068C16841F01D
:103690004001C16010BDFFF777FA10BD10B5806B17
:1036A000FFF773FA10BD00000146034A09680020C5
:1036B000914200D102207047004400400168CA686E
:1036C00022F49072CA6001684A6922F001024A61DC
:1036D000202180F83A1070470168CA6822F0C002C1
:1036E000CA60202180F83910704710B590F83A1060
:1036F000222901D0022010BD8168B1F5805F11D070
:103700000169002901681FD0496801F07F03816ABF
:103710004A1C82620B70C18D491E0904090CC185C7
:1037200018D026E00269816A002A0268526805D032
:10373000D2B20A80816A491C8162ECE7C2F30802B6
:103740000A80816A891CF7E74A68816A4B1C836298
:103750000A70E0E70168CA6822F49072CA600168E2
:103760004A6922F001024A61202180F83A10FFF7ED
:1037700083F9002010BD00002DE9F04104460068E7
:10378000016921F44052E168114301612168C86870
:1037900049F20C6290432369A268E5691A436369A0
:1037A0002B431A430243CA602168486920F44072DF
:1037B000A06910434861E1696425B1F5004F97485D
:1037C000974A21684FF032083FD0914201D08142A0
:1037D0007CD1FEF77DFC00EBC00101EB00106168BD
:1037E0008900B0FBF1F6FEF773FC00EBC00101EBC2
:1037F000001061688900B0FBF1F0B0FBF5F06FF0EC
:103800001801484306EB800108EB0110B0FBF5F00E
:1038100000F0F006FEF75CFC00EBC00101EB0010CD
:1038200061688900B0FBF1F0B0FBF5F006EB001623
:10383000FEF74EFC00EBC00101EB0010616889004F
:10384000B0FBF1F7FEF744FCD2E0914201D0814297
:103850003DD1FEF73DFC00EBC00101EB00106168BB
:103860004900B0FBF1F0B0FBF5F00601FEF730FCCB
:1038700000EBC00101EB001061684900B0FBF1F7FB
:10388000FEF726FC00EBC00101EB00106168490067
:10389000B0FBF1F0B0FBF5F06FF01801484307EB17
:1038A000800108EBC100B0FBF5F000F0F80006EB7A
:1038B0004006FEF70DFC00EBC00101EB0010616853
:1038C0004900B0FBF1F7FEF703FC3CE055E0FEF7E2
:1038D000EFFB00EBC00101EB001061684900B0FB99
:1038E000F1F0B0FBF5F00601FEF7E2FB00EBC001E2
:1038F00001EB001061684900B0FBF1F7FEF7D8FB5F
:1039000000EBC00101EB001061684900B0FBF1F071
:10391000B0FBF5F06FF01801484307EB800108EBAE
:10392000C100B0FBF5F000F0F80006EB4006FEF732
:10393000BFFB00EBC00101EB001061684900B0FB68
:10394000F1F7FEF7B5FB00EBC00101EB0010616879
:103950004900B0FBF1F0B0FBF5F06FF018014843FF
:1039600007EB800108EBC100B0FBF5F000F00700A9
:10397000216830448860BDE8F081FEF799FB00EBD8
:10398000C00101EB001061688900B0FBF1F6FEF7A1
:103990008FFB00EBC00101EB001061688900B0FBF8
:1039A000F1F0B0FBF5F06FF01801484306EB800131
:1039B00008EB0110B0FBF5F000F0F006FEF778FB25
:1039C00000EBC00101EB001061688900B0FBF1F071
:1039D000B0FBF5F006EB0016FEF76AFB00EBC0014A
:1039E00001EB001061688900B0FBF1F7FEF760FBA6
:1039F00000EBC00101EB001061688900B0FBF1F041
:103A0000B0FBF5F06FF01801484307EB800108EBBD
:103A10000110B0FBF5F000F00F00A9E70014014021
:103A20000010014090F83910212901D00220704780
:103A30008168B1F5805F016A0BD04A1C026202689E
:103A400009785160C18C491E0904090CC1840ED04B
:103A500017E009880268C1F3080151600169002973
:103A6000016A02D0491C0162ECE7891CFBE701688E
:103A7000CA6822F08002CA600068C16841F0400153
:103A8000C1600020704700000148FEF753BE0000EF
:103A90000C030020FEE700009FED010B70470000C3
:103AA0000000000000000000FEE700000FB4054B1E
:103AB00010B503A9044A029800F07AFD10BC5DF825
:103AC00014FB0000F94C00082402002003B4019804
:103AD0004100009850EAC12018BF04204A0D18BFC9
:103AE00040F0010040F2FF72B2EB515F08BF40F0BE
:103AF0000200012808BF052002B070472DED020B1F
:103B0000019820F0004001909DED000B02B070473D
:103B100010B52F499FED2C1B2DED020B84B005989D
:103B200020F000408842DCBF00209DED040B32DD18
:103B30002849884209D1049840B94FF0010000F0AB
:103B40006FFC00F03DFC06B010BD05DB9DED040BE5
:103B500000F02AFC06B010BD68469DED040B00F095
:103B60003BF810F0030011D0012818D09DED021B86
:103B70009DED000B02281AD000F04AFA51EC100B10
:103B800081F0004106B041EC100B10BD9DED021B11
:103B90009DED000B012000F06FFB06B010BD9DED08
:103BA000021B9DED000B00F033FA06B010BD0120A2
:103BB00000F062FB51EC100B81F0004106B041ECCB
:103BC000100B10BD0000000000000000000000000D
:103BD000FB21E93F0000F07F2DE9F14F04462DED78
:103BE000020B2DED088B8AB09FEDE70B80ED020BE9
:103BF000139EE74826F0004585420ADC9DED120B36
:103C0000002084ED000B0AB0BDEC088B03B0BDE8CA
:103C1000F08FE0489FEDE0AB9FEDE1BBA84247DDB0
:103C2000E14F9FEDE39B9FEDE48B9DED120B53EC79
:103C30001A2B51EC100B002E1CDDFCF7B7FB41ECEE
:103C4000100BBD4208D053EC1B2B51EC100BFCF7B2
:103C5000ADFBC4E900010BE053EC192B51EC100B48
:103C6000FCF7A4FB53EC182BFCF7A0FBC4E9000104
:103C70000120C8E7FCF7F9FA41EC100BBD4208D06F
:103C800053EC1B2B51EC100BFCF7EFFAC4E90001CD
:103C90000BE053EC192B51EC100BFCF7E6FA53EC4C
:103CA000182BFCF7E2FAC4E900014FF0FF30AAE755
:103CB000C348A84279DB9DED120B51EC100B01F0CB
:103CC0000EF841EC180B9FEDC00B53EC102BFCF7DA
:103CD00073FB9FEDBF1B53EC112BFCF7C6FAFCF7EF
:103CE000CFFD0746FCF749FC41EC190B53EC1A2BAE
:103CF000FCF762FB53EC182BFCF75BFB41EC180B59
:103D000053EC1B2B51EC190BFCF756FBDFF8C8A248
:103D100041EC100B4FEA15580125FA4453EC102BD7
:103D200051EC180BFCF742FB032DC4E900013DD018
:103D3000C1F30A5005EB4511A8EB0000113981428F
:103D400034DA0AEB051BB0EE48AA9BED000BF0EE4F
:103D500068AA53EC102B51EC190BFCF72DFB41EC2E
:103D60001B0B51EC1A0B53EC1B2BFCF71FFB41EC0C
:103D7000180B51EC1A0B53EC182BFCF717FB53ECF8
:103D80001B2BFCF713FB9BED020B41EC1A0B53ECC6
:103D9000102B51EC190BFCF70FFB53EC1A2BFCF713
:103DA00005FB41EC100B6D1CB8E70EE0002EA8BF20
:103DB0003846BFF628AF94ED000B51EC100B81F0A4
:103DC0000041C4E9000178421DE7C6F3130040F446
:103DD000801EC6F30A50A0F2F530471100F01F050F
:103DE000C5F12000DDF848B008900020069007904B
:103DF0000520EC467949002D07EB0002794408BF05
:103E000051F8221009D051F8223001EB8201AB4069
:103E10004A68089922FA01F11943A1FB0E26A1FB79
:103E20000B131A449A4234BF0123002303EB060804
:103E30000CEB8003D3E901A60E448E4234BF01216E
:103E4000002192448A4411B1924502D903E092457F
:103E500001D2012100E00021C3E901A641444CF850
:103E60002010011EA0F10100C4DC029800F10050F6
:103E7000850F0298DDE903678000DDF81480FCF708
:103E80007CFB41EC1A0B3046FCF788FB9FED541B82
:103E900053EC112BFCF790FA41EC1B0B3846FCF766
:103EA0007DFB9FED511B53EC112BFCF785FA41EC88
:103EB000180B4046FCF772FB9FED4D1B53EC112B8A
:103EC000FCF77AFA41EC190B51EC180B53EC192B57
:103ED000FCF7CBF953EC1B2BFCF7C7F953EC1A2B6F
:103EE000FCF7C3F9CDE90801002008909DED080B0F
:103EF00053EC1A2B51EC100BFCF758FA53EC1B2B1C
:103F0000FCF754FA53EC182BFCF750FA53EC192B2E
:103F1000FCF74FFA9FED381B53EC112BFCF74CFAD2
:103F20009FED370B41EC180B53EC102B9DED080B5C
:103F300051EC100BFCF740FA53EC182BFCF795F9F9
:103F40009FED310B41EC180B53EC102B9DED080B42
:103F500051EC100BFCF730FA53EC182BFCF785F9F9
:103F600041EC100B139810F0004F06D06D4251EC4D
:103F7000100B81F0004141EC100B284684ED000B42
:103F800041E600000000000000000000000000000A
:103F9000FB21E93F7CD9024000004054FB21F93F5E
:103FA0003163621A61B4D03DFB21F93F000000008B
:103FB0000000601A61B4D03D7370032E8A19A33BD0
:103FC000FB2139410000000083C8C96D305FE43F28
:103FD000000000000000E03F9A110000E81000001F
:103FE000000000000000103E000000000000103C37
:103FF000000000000000103A182D4454FB21F93D48
:104000003326A611460B113C00000054FB21F93D5C
:1040100010B52DED040B2DED088B82B0B0EE419A5A
:10402000F0EE619A0B9820F000449FED4BABB4F199
:10403000795F11DA9DED0A0B51EC100BFCF720FCB7
:10404000002801BFB0EE4A0AF0EE6A0A02B0BDECE9
:10405000088B04BF04B010BD9DED0A0B53EC102B70
:1040600051EC100BFCF7A8F941EC180B3C48062169
:10407000B0EE480AF0EE680A784400F081F853EC9C
:10408000182B51EC100BFCF797F99DED0A0B41EC46
:104090001B0B53EC192B51EC100BFCF78DF941EC79
:1040A000190B53EC1B2B51EC180BFCF785F953EC57
:1040B000192BFCF77BF99FED2C0B41EC190B53EC02
:1040C000102B51EC180BFCF777F941EC100B28483A
:1040D000844210DA53EC192B51EC100BFCF766F903
:1040E00053EC1A2BFCF765F941EC100B02B0BDEC58
:1040F000088B04B010BD1F48A042BCBF9FED1E1B23
:104100008DED001B06DBA4F500100190002000904F
:104110009DED001B51EC100B53EC112BFCF746F9F5
:104120009DED000B41EC180B53EC102B51EC1A0BCE
:10413000FCF73CF941EC1A0B53EC192B51EC180B22
:10414000FCF734F953EC1A2BFCF733F941EC100B64
:10415000CCE7000000000000000000000000F03F7D
:104160000C0E000000000000000000000000E03F16
:104170003333D33F0000E93F000000000000D23F8E
:1041800070B504462DED028B4D1E00EBC500B0EE60
:10419000408AF0EE608A90ED000B35F0060017D0F3
:1041A00053EC182B51EC100BFCF706F941EC100BFB
:1041B0006D1E04EBC50090ED001B51EC100B53EC91
:1041C000112BFCF752F841EC100B35F00600E7D14B
:1041D000022D36D0042D1CD0062D1CBFBDEC028B49
:1041E00070BD53EC182B51EC100BFCF7E5F894ED77
:1041F0000A1B53EC112BFCF738F853EC182BFCF787
:10420000DBF894ED081B53EC112BFCF72EF841EC76
:10421000100B53EC182B51EC100BFCF7CDF894ED70
:10422000061B53EC112BFCF720F853EC182BFCF772
:10423000C3F894ED040B53EC102BFCF716F841EC8B
:10424000100B53EC182B51EC100BFCF7B5F894ED58
:10425000021B53EC112BFCF708F853EC182BFCF75E
:10426000ABF894ED001B53EC112BFBF7FEFFBDECFC
:10427000028B41EC100B70BD31B504462DED040BE3
:104280002DED0A8BB0EE41BAF0EE61BA0B989DEDC0
:104290000A0B20F00040B0F1795F0DDA51EC100B01
:1042A000FFF714FC042808BF00F09AF89DED0A0BF4
:1042B000BDEC0A8B05B030BD53EC102B51EC100B4C
:1042C000FCF77AF841EC180B9DED0A0B53EC182B18
:1042D00051EC100BFCF770F841EC190B2C48B0EEC8
:1042E000480AF0EE680A05217844FFF749FF9FED80
:1042F0002ACBB0EE40AAF0EE60AA9CB353EC1C2B84
:1043000051EC190BFCF758F841EC1C0B53EC1A2B31
:1043100051EC190BFCF750F89FED210B41EC190BF8
:1043200053EC102B51EC1B0BFCF746F853EC192BFC
:10433000FCF73CF853EC182BFCF73EF853EC1B2B26
:10434000FCF734F853EC1C2BFCF730F89DED0A1BFE
:1043500053EC112BFCF72DF8BDEC0A8B05B041ECAA
:10436000100B30BDFFE753EC1A2B51EC180BFCF788
:1043700023F853EC1C2BFBF778FF53EC192BFCF7BD
:104380001BF89DED0A1B53EC112BFBF76EFFE3E7C7
:10439000940C000000000000495555555555C5BF07
:1043A000000000000000E03F10B553EC102B51EC72
:1043B000100BFBF75AFF41EC100B10BD0000000082
:1043C0009FED050B10B553EC102B51EC100BFCF7C7
:1043D00065F841EC100B10BD00000000000000006B
:1043E0009FED050B10B553EC102B51EC100BFBF7A8
:1043F000E3FF41EC100B10BD0000000000000010B6
:1044000002E008C8121F08C1002AFAD1704770479D
:10441000002001E001C1121F002AFBD170470000FB
:104420000149086070470000280200202DE9FF5F65
:1044300082B00021DDE90430020DDDF840B0034315
:1044400018D044F61050A2F2FF32424315141198CE
:1044500001281FD0A5EB0B00401C5FEA000A4FF0BB
:1044600000064E4FDFF83891B046504615D5CAF1D8
:10447000000413E0119801244AA3012801D16FEA36
:104480000B010298119AC0E90031C0E9024206B05E
:10449000BDE8F09FCBF10000DFE704460021404A71
:1044A000491842EB0450CDE9001012E0E00707D0B4
:1044B00032463B4640464946FBF77EFF80468946EA
:1044C00032463B4610461946FBF776FF06460F4636
:1044D0006410002CEAD1DDE90401DDE90023BAF122
:1044E000000F06DAFBF768FF42464B46FBF764FF16
:1044F00005E0FBF7D3FF42464B46FBF7CFFF0446F0
:104500000E460022284BFCF781F803D84FF0FF300D
:10451000014607E00022254B20463146FBF7A5FE69
:10452000FCF783F9102409E0002C0ADB0A2200239F
:10453000FBF758FE039B30321A55641E50EA010205
:10454000F2D1641C039AC4F111031444119A012A94
:1045500003D0012208430DD10AE0084304D0002013
:104560004FF0110B119072E7A3EB0B056D1E0DE0E0
:104570005B4504DD4FF0000205F1010504E003DABC
:104580004FF00002A5F10105002AECD00298119924
:10459000C0E90231C0E9004579E70000000014409D
:1045A0000000F03F300000000000F0430000E03F5A
:1045B0002DE9FF4F95B09B468946064600250FE240
:1045C000252877D100242746F84A0121059400E0E8
:1045D000044316F8013F203B01FA03F01042F7D1E3
:1045E00030782A2811D06FF02F033078A0F13002F4
:1045F000092A16D8059A44F0020402EB820203EB62
:1046000042021044761C0590EFE759F8042B0592FE
:10461000002A03DA504244F40054059044F00204A6
:10462000761C30782E2816D116F8010F44F00404B9
:104630002A280DD06FF02F023078A0F13003092B1B
:1046400009D807EB870302EB4303C718761CF3E78F
:1046500059F8047B761C30786C280FD006DC4C2887
:1046600017D068280DD06A2814D104E0742810D01F
:104670007A280FD10DE044F400140AE044F48014C9
:1046800001E044F440147278824202D104F58014AF
:10469000761C761C307866280BD013DC582877D02F
:1046A00009DC002875D04528F6D04628F4D04728E4
:1046B0001AD19DE118E0632835D0642879D06528A7
:1046C00012D195E1702873D008DC6728F1D06928F1
:1046D0006FD06E280DD06F2806D1B5E073282CD08E
:1046E000752875D0782874D05A46179990476D1C54
:1046F00075E1C4F30250022809D003280DD0D9F87F
:10470000001004280DD00D6009F1040967E1D9F803
:104710000010EA17C1E90052F6E7D9F800100D8041
:10472000F2E70D70F0E719F8041B8DF80010002077
:104730008DF80100EA46012003E059F804AB4FF080
:10474000FF3061074FF0000102D40DE008F10101D4
:104750008846B9420FDA8045F8DB1AF808100029BC
:10476000F4D108E008F1010188468142FADB1AF829
:1047700008100029F6D105985B46A0EB08072146F2
:104780003846179A00F094FA284400EB080507E031
:104790004DE029E10DE01AF8010B5A4617999047B0
:1047A000B8F10108F7D25B4621463846179A13E163
:1047B00042E00A220092C4F302524FF0000A022A99
:1047C00008D059F804CB032A4FEAEC710AD00DE067
:1047D00029E02AE009F1070121F00702F2E802C10D
:1047E000914609E00FFA8CFC4FEAEC71042A03D1E0
:1047F0004FFA8CFC4FEAEC71002907DA0A460021D7
:10480000DCF1000C61EB02012D2202E0220504D54F
:104810002B228DF80420012203E0E20701D02022A0
:10482000F7E7904659E00A2102E010220DE010213E
:104830004FF0000A00910BE010224FF0000A44F004
:1048400004040827009203E008224FF0000A0092B7
:10485000C4F30252022A05D059F804CB0021032ADE
:1048600008D009E009F1070121F00702F2E802C1CE
:10487000914605E01FFA8CFC042A01D10CF0FF0CD4
:104880004FF00008220728D5702806D0009B83F03F
:10489000100353EA0A0305D00EE040228DF80420ED
:1048A000012208E05CEA010206D030228DF80420E3
:1048B0008DF8050002229046009B83F0080353EA1E
:1048C0000A030AD15CEA010201D1620705D5302250
:1048D0008DF804204FF001087F1E582804D034A022
:1048E00003900EA802900DE036A0F9E7534660460B
:1048F000009AFBF777FC84460398825C0298401E7E
:10490000029002705CEA0100F0D1029806A9081A30
:1049100000F1200A600702D524F4803400E001276A
:10492000574502DDA7EB0A0000E0002000EB0A017A
:10493000009005984144401A0590E00306D45B4678
:104940002146179A059800F0B3F90544002706E0C0
:1049500001A85A46C05D179990476D1C7F1C4745BA
:10496000F6DBE0030CD55B462146179A059800F06C
:104970009FF9054404E030205A46179990476D1C72
:104980000099481E00900029F5DC08E00298029981
:104990005A460078491C0291179990476D1CBAF14C
:1049A0000001AAF1010AF1DC65E10000092801001B
:1049B0003031323334353637383961626364656695
:1049C0000000000030313233343536373839414257
:1049D000434445460000000000F058F90544761CA9
:1049E000307800287FF4ECAD19B02846BDE8F08F90
:1049F000620700D4062709F1070222F0070CFCE841
:104A00000223E14603F000485FEA080C02D00FF2EF
:104A1000702C0DE05FEA045C02D50FF2682C07E011
:104A20005FEAC47C02D00FF2602C01E0AFF2700CA0
:104A30004FF0FF3823F00043CDF850C065280CD06C
:104A400006DC452809D046281DD047283DD13DE049
:104A5000662818D067287ED138E00021112F01DBAD
:104A6000112000E0781CCDE9000106A90EA8FFF78F
:104A7000DDFCDDE90F010E9A03910021009207F1A0
:104A8000010A04914DE04FF000400097CDE901107C
:104A900006A90EA8FFF7CAFCDDE90F0203920E9BE0
:104AA00011990022DDF80CA00093049211B9791C31
:104AB00000EB010AB7EB0A0004D4C0F1FF3007F1A4
:104AC000010A0490AAEB0700019044E0012F00DAEC
:104AD00001270021112F01DD112000E03846CDE92A
:104AE000000106A90EA8FFF7A1FCDDE90F010E9A4F
:104AF0000391002104910092BA4621070CD4039936
:104B0000514500DA8A46BAF1010F05DD009AAAF193
:104B10000101515C302908D0B84202DA10F1040FCB
:104B200006DA0121CDE9011015E0AAF10101E9E75A
:104B3000002805DC049901440491AAEB000102E07D
:104B4000411C514500DD8A460499401A401C0190E1
:104B50004FF000400290200704D40198504501DB3B
:104B6000CDF8048000208DF84F0002980DF14F071A
:104B7000B0F1004F25D02B200E9002984FF0020884
:104B800000280CDA404202902D200E9007E00A2106
:104B90000298FBF76FFD3031029007F8011DB8F164
:104BA0000001A8F10108F2DC02980028EFD1791E7B
:104BB0000E980870307800F0200040F0450007F8AB
:104BC000020D12A8C01B00F107081498007800B16C
:104BD000012000EB0A01019801EBE07105984144C6
:104BE000401A401E0590E00306D45B462146179A02
:104BF000059800F05DF805441498007818B15A46FD
:104C0000179990476D1CE00324D55B462146179AFF
:104C1000059800F04DF805441CE00498002807DBD7
:104C2000DDE90301884203DD0098405C179901E04B
:104C3000179930205A469047049805F10105401C09
:104C400004900198401E019004D12E205A461799D5
:104C500090476D1CBAF10001AAF1010ADDDC05E004
:104C600017F8010B5A46179990476D1CB8F10001CF
:104C7000A8F10108F4DC5B462146179A0598ABE6DB
:104C80002D0000002B000000200000002DE9F04165
:104C9000044600251E461746880404D405E039461C
:104CA0002020B0476D1C641EF9D52846BDE8F08170
:104CB0002DE9F041044600251E469046C80301D563
:104CC000302700E02027880404D505E04146384617
:104CD000B0476D1C641EF9D52846BDE8F08182B04E
:104CE000CDE9000121F0004001909DED000B02B0E4
:104CF00051EC100B704700007CB5054600208DF884
:104D00000400164C8DF80050A168087C10B90120F1
:104D1000FBF7B6FEA1680120212248741049A06863
:104D200002E00B685B1C0B60036893F8393032EAD1
:104D30000303F6D001226946FBF7D2FE18B1A06842
:104D4000016B491C01639DF800000A2801D0012075
:104D500000E00020A168487428467CBD7401002052
:104D6000580100201FB5FDF713F8FEF763FBFEF7AF
:104D70007BF8FEF75BF8FEF71FF9FEF749F9FEF73F
:104D800073F9FEF797F9002202213620FDF788F823
:104D90003620FDF779F8002211462620FDF780F82D
:104DA0002620FDF771F8022201213720FDF778F85F
:104DB0003720FDF769F8002211460F20FDF770F843
:104DC0000F20FDF761F8002211460D20FDF768F86D
:104DD0000D20FDF759F8FBF75FFE0CA0FEF766FE0D
:104DE0009FED0F0B14A08DED020B9FED0F0B8DEDC2
:104DF000000B9FED0F0B53EC102BFEF757FE1648E0
:104E0000FDF7C0FB1548FDF7BDFBFEE748656C6C80
:104E10006F21BBB6D3ADCAB9D3C3A3A10A000000AA
:104E2000B81E85EB51B89E3F7B14AE47E17A943FA4
:104E30007B14AE47E17A843F2443484152542C25E9
:104E40006C662C256C662C256C66BBB6D3ADCAB9D6
:104E5000D3C3A3A10A000000540200209002002046
:104E600000061016000610160000000000000000EA
:104E70000102030406070809000000000102030400
:104E8000FF020000FF0200004C5555555555A53F47
:104E90007751C1166CC156BF9015CB19A001FA3ECF
:104EA000AD529C804F7E92BEC4B1B4BD9EEE213EF9
:104EB000D43888BEE9FAA8BD00004054FB21F93F70
:104EC0003163621A61B4D03D0000601A61B4D03D14
:104ED0007370032E8A19A33B0000002E8A19A33B8E
:104EE000C14920259A837B390000000000000000A2
:104EF0006E83F9A22915444ED15727FCC0DD34F545
:104F0000999562DB4190433CAB6351FE61C5BBDECA
:104F10003A6E24B7E0D24D42EA2E49061C92D109DE
:104F20001CEB1DFE3EA729B1F53582E88444BB2E5B
:104F300026709CE9417E5FB439D69139F4395383A8
:104F40008B5F849C3B28F9BDFF97F81F0F9805DE07
:104F50008B112FEF1F6D0A5ACF7E366DB709CB2705
:104F6000663F464F2DEA5F9EC7BA27757BF1E5EB9A
:104F7000F739073DEA92528AB15FFB6B085D8D1FDE
:104F8000A6F810111111813FD561C119A0012ABFE6
:104F90007DFEB157E31DC73EEB9C2B8AE6E55ABE6A
:104FA0007CD5CF5A3AD9E53DCAB9D3C3C7B0CEB440
:104FB000B3F5CABCBBAFB8C3CDA8D0C5D7E9BCFE5A
:104FC000A3A10A00CEB4B3F6B4ED0000CEB4D4DA97
:104FD000D7E9BCFE4D6170BAAFCAFDD6D0D5D2B507
:104FE000BDB4A6C0EDB8C3CAFDBEDDB5C4D7E9BC2B
:104FF000FEBAC5A3A10A0000185000080000002056
:105000002C020000BE080008185100082C020020E5
:10501000340B00001044000841320182101324F4C4
:1050200013C44F1B08A80401123C2440330103168B
:10503000D33F8369406021107A36AB3E356F40D54F
:105040000968226C4E87C051DA1B7C613E8740CCD8
:105050005D4BC807F56EC08821F03FB84082E2C7BB
:1050600098EFBFB9FC87F4DBD7EFBFFE43FAEDEB57
:10507000C0EF3F72914FE34803086930F808DC2223
:105080009FC69106EE80680947958C5C6AC6EF3F23
:105090000869306F4D2450B9D48C10A16809665549
:1050A000D050708DE33F086930F80851AB8286829A
:1050B0006BCC3013993A1408D5331B08410441C313
:1050C000D007FAF0304113C44F1B08A8041ACC04CF
:1050D0001401010113FD3114088532140828051B41
:1050E00020840413BC061C2028080C19041A200C68
:1050F000320129040110193B01292301021A02047B
:105100001A03041A05701A1D041A3504410A1503FE
:085110006009184DC92E0000D2
:04000005080001AD41
:00000001FF
